{
	"contracts/Achievements.sol": {
		"Achievements": {
			"abi": [
				{
					"inputs": [],
					"stateMutability": "nonpayable",
					"type": "constructor"
				},
				{
					"inputs": [
						{
							"internalType": "uint256",
							"name": "",
							"type": "uint256"
						}
					],
					"name": "achievements",
					"outputs": [
						{
							"internalType": "uint256",
							"name": "id",
							"type": "uint256"
						},
						{
							"internalType": "string",
							"name": "name",
							"type": "string"
						},
						{
							"internalType": "string",
							"name": "description",
							"type": "string"
						},
						{
							"internalType": "string",
							"name": "reward",
							"type": "string"
						}
					],
					"stateMutability": "view",
					"type": "function"
				},
				{
					"inputs": [
						{
							"internalType": "uint256",
							"name": "id",
							"type": "uint256"
						},
						{
							"internalType": "address",
							"name": "user",
							"type": "address"
						}
					],
					"name": "claimAchievement",
					"outputs": [],
					"stateMutability": "nonpayable",
					"type": "function"
				},
				{
					"inputs": [
						{
							"internalType": "string",
							"name": "name",
							"type": "string"
						},
						{
							"internalType": "string",
							"name": "description",
							"type": "string"
						},
						{
							"internalType": "string",
							"name": "reward",
							"type": "string"
						}
					],
					"name": "createAchievement",
					"outputs": [],
					"stateMutability": "nonpayable",
					"type": "function"
				},
				{
					"inputs": [
						{
							"internalType": "address",
							"name": "_address",
							"type": "address"
						}
					],
					"name": "setManager",
					"outputs": [],
					"stateMutability": "nonpayable",
					"type": "function"
				},
				{
					"inputs": [
						{
							"internalType": "uint256",
							"name": "",
							"type": "uint256"
						}
					],
					"name": "usersAchievements",
					"outputs": [
						{
							"internalType": "address",
							"name": "",
							"type": "address"
						}
					],
					"stateMutability": "view",
					"type": "function"
				}
			],
			"devdoc": {
				"kind": "dev",
				"methods": {},
				"version": 1
			},
			"evm": {
				"assembly": "    /* \"contracts/Achievements.sol\":26:901  contract Achievements {... */\n  mstore(0x40, 0x80)\n    /* \"contracts/Achievements.sol\":194:230  constructor () {owner = msg.sender;} */\n  callvalue\n  dup1\n  iszero\n  tag_1\n  jumpi\n  0x00\n  dup1\n  revert\ntag_1:\n  pop\n    /* \"contracts/Achievements.sol\":218:228  msg.sender */\n  caller\n    /* \"contracts/Achievements.sol\":210:215  owner */\n  0x00\n  dup1\n    /* \"contracts/Achievements.sol\":210:228  owner = msg.sender */\n  0x0100\n  exp\n  dup2\n  sload\n  dup2\n  0xffffffffffffffffffffffffffffffffffffffff\n  mul\n  not\n  and\n  swap1\n  dup4\n  0xffffffffffffffffffffffffffffffffffffffff\n  and\n  mul\n  or\n  swap1\n  sstore\n  pop\n    /* \"contracts/Achievements.sol\":26:901  contract Achievements {... */\n  dataSize(sub_0)\n  dup1\n  dataOffset(sub_0)\n  0x00\n  codecopy\n  0x00\n  return\nstop\n\nsub_0: assembly {\n        /* \"contracts/Achievements.sol\":26:901  contract Achievements {... */\n      mstore(0x40, 0x80)\n      callvalue\n      dup1\n      iszero\n      tag_1\n      jumpi\n      0x00\n      dup1\n      revert\n    tag_1:\n      pop\n      jumpi(tag_2, lt(calldatasize, 0x04))\n      shr(0xe0, calldataload(0x00))\n      dup1\n      0x27aed72e\n      eq\n      tag_3\n      jumpi\n      dup1\n      0xc9940208\n      eq\n      tag_4\n      jumpi\n      dup1\n      0xd0ebdbe7\n      eq\n      tag_5\n      jumpi\n      dup1\n      0xde718397\n      eq\n      tag_6\n      jumpi\n      dup1\n      0xee1babb5\n      eq\n      tag_7\n      jumpi\n    tag_2:\n      0x00\n      dup1\n      revert\n        /* \"contracts/Achievements.sol\":95:128  Achievement[] public achievements */\n    tag_3:\n      tag_8\n      0x04\n      dup1\n      calldatasize\n      sub\n      dup2\n      add\n      swap1\n      tag_9\n      swap2\n      swap1\n      tag_10\n      jump\t// in\n    tag_9:\n      tag_11\n      jump\t// in\n    tag_8:\n      mload(0x40)\n      tag_12\n      swap5\n      swap4\n      swap3\n      swap2\n      swap1\n      tag_13\n      jump\t// in\n    tag_12:\n      mload(0x40)\n      dup1\n      swap2\n      sub\n      swap1\n      return\n        /* \"contracts/Achievements.sol\":134:187  mapping (uint256 => address) public usersAchievements */\n    tag_4:\n      tag_14\n      0x04\n      dup1\n      calldatasize\n      sub\n      dup2\n      add\n      swap1\n      tag_15\n      swap2\n      swap1\n      tag_10\n      jump\t// in\n    tag_15:\n      tag_16\n      jump\t// in\n    tag_14:\n      mload(0x40)\n      tag_17\n      swap2\n      swap1\n      tag_18\n      jump\t// in\n    tag_17:\n      mload(0x40)\n      dup1\n      swap2\n      sub\n      swap1\n      return\n        /* \"contracts/Achievements.sol\":687:775  function setManager(address _address) isOwner public {... */\n    tag_5:\n      tag_19\n      0x04\n      dup1\n      calldatasize\n      sub\n      dup2\n      add\n      swap1\n      tag_20\n      swap2\n      swap1\n      tag_21\n      jump\t// in\n    tag_20:\n      tag_22\n      jump\t// in\n    tag_19:\n      stop\n        /* \"contracts/Achievements.sol\":398:604  function createAchievement(string memory name, string memory description, string memory reward) public isOwner {... */\n    tag_6:\n      tag_23\n      0x04\n      dup1\n      calldatasize\n      sub\n      dup2\n      add\n      swap1\n      tag_24\n      swap2\n      swap1\n      tag_25\n      jump\t// in\n    tag_24:\n      tag_26\n      jump\t// in\n    tag_23:\n      stop\n        /* \"contracts/Achievements.sol\":610:681  function claimAchievement(uint256 id, address user) isManager public {} */\n    tag_7:\n      tag_27\n      0x04\n      dup1\n      calldatasize\n      sub\n      dup2\n      add\n      swap1\n      tag_28\n      swap2\n      swap1\n      tag_29\n      jump\t// in\n    tag_28:\n      tag_30\n      jump\t// in\n    tag_27:\n      stop\n        /* \"contracts/Achievements.sol\":95:128  Achievement[] public achievements */\n    tag_11:\n      0x02\n      dup2\n      dup2\n      sload\n      dup2\n      lt\n      tag_31\n      jumpi\n      0x00\n      dup1\n      revert\n    tag_31:\n      swap1\n      0x00\n      mstore\n      keccak256(0x00, 0x20)\n      swap1\n      0x04\n      mul\n      add\n      0x00\n      swap2\n      pop\n      swap1\n      pop\n      dup1\n      0x00\n      add\n      sload\n      swap1\n      dup1\n      0x01\n      add\n      dup1\n      sload\n      tag_33\n      swap1\n      tag_34\n      jump\t// in\n    tag_33:\n      dup1\n      0x1f\n      add\n      0x20\n      dup1\n      swap2\n      div\n      mul\n      0x20\n      add\n      mload(0x40)\n      swap1\n      dup2\n      add\n      0x40\n      mstore\n      dup1\n      swap3\n      swap2\n      swap1\n      dup2\n      dup2\n      mstore\n      0x20\n      add\n      dup3\n      dup1\n      sload\n      tag_35\n      swap1\n      tag_34\n      jump\t// in\n    tag_35:\n      dup1\n      iszero\n      tag_36\n      jumpi\n      dup1\n      0x1f\n      lt\n      tag_37\n      jumpi\n      0x0100\n      dup1\n      dup4\n      sload\n      div\n      mul\n      dup4\n      mstore\n      swap2\n      0x20\n      add\n      swap2\n      jump(tag_36)\n    tag_37:\n      dup3\n      add\n      swap2\n      swap1\n      0x00\n      mstore\n      keccak256(0x00, 0x20)\n      swap1\n    tag_38:\n      dup2\n      sload\n      dup2\n      mstore\n      swap1\n      0x01\n      add\n      swap1\n      0x20\n      add\n      dup1\n      dup4\n      gt\n      tag_38\n      jumpi\n      dup3\n      swap1\n      sub\n      0x1f\n      and\n      dup3\n      add\n      swap2\n    tag_36:\n      pop\n      pop\n      pop\n      pop\n      pop\n      swap1\n      dup1\n      0x02\n      add\n      dup1\n      sload\n      tag_39\n      swap1\n      tag_34\n      jump\t// in\n    tag_39:\n      dup1\n      0x1f\n      add\n      0x20\n      dup1\n      swap2\n      div\n      mul\n      0x20\n      add\n      mload(0x40)\n      swap1\n      dup2\n      add\n      0x40\n      mstore\n      dup1\n      swap3\n      swap2\n      swap1\n      dup2\n      dup2\n      mstore\n      0x20\n      add\n      dup3\n      dup1\n      sload\n      tag_40\n      swap1\n      tag_34\n      jump\t// in\n    tag_40:\n      dup1\n      iszero\n      tag_41\n      jumpi\n      dup1\n      0x1f\n      lt\n      tag_42\n      jumpi\n      0x0100\n      dup1\n      dup4\n      sload\n      div\n      mul\n      dup4\n      mstore\n      swap2\n      0x20\n      add\n      swap2\n      jump(tag_41)\n    tag_42:\n      dup3\n      add\n      swap2\n      swap1\n      0x00\n      mstore\n      keccak256(0x00, 0x20)\n      swap1\n    tag_43:\n      dup2\n      sload\n      dup2\n      mstore\n      swap1\n      0x01\n      add\n      swap1\n      0x20\n      add\n      dup1\n      dup4\n      gt\n      tag_43\n      jumpi\n      dup3\n      swap1\n      sub\n      0x1f\n      and\n      dup3\n      add\n      swap2\n    tag_41:\n      pop\n      pop\n      pop\n      pop\n      pop\n      swap1\n      dup1\n      0x03\n      add\n      dup1\n      sload\n      tag_44\n      swap1\n      tag_34\n      jump\t// in\n    tag_44:\n      dup1\n      0x1f\n      add\n      0x20\n      dup1\n      swap2\n      div\n      mul\n      0x20\n      add\n      mload(0x40)\n      swap1\n      dup2\n      add\n      0x40\n      mstore\n      dup1\n      swap3\n      swap2\n      swap1\n      dup2\n      dup2\n      mstore\n      0x20\n      add\n      dup3\n      dup1\n      sload\n      tag_45\n      swap1\n      tag_34\n      jump\t// in\n    tag_45:\n      dup1\n      iszero\n      tag_46\n      jumpi\n      dup1\n      0x1f\n      lt\n      tag_47\n      jumpi\n      0x0100\n      dup1\n      dup4\n      sload\n      div\n      mul\n      dup4\n      mstore\n      swap2\n      0x20\n      add\n      swap2\n      jump(tag_46)\n    tag_47:\n      dup3\n      add\n      swap2\n      swap1\n      0x00\n      mstore\n      keccak256(0x00, 0x20)\n      swap1\n    tag_48:\n      dup2\n      sload\n      dup2\n      mstore\n      swap1\n      0x01\n      add\n      swap1\n      0x20\n      add\n      dup1\n      dup4\n      gt\n      tag_48\n      jumpi\n      dup3\n      swap1\n      sub\n      0x1f\n      and\n      dup3\n      add\n      swap2\n    tag_46:\n      pop\n      pop\n      pop\n      pop\n      pop\n      swap1\n      pop\n      dup5\n      jump\t// out\n        /* \"contracts/Achievements.sol\":134:187  mapping (uint256 => address) public usersAchievements */\n    tag_16:\n      mstore(0x20, 0x03)\n      dup1\n      0x00\n      mstore\n      keccak256(0x00, 0x40)\n      0x00\n      swap2\n      pop\n      sload\n      swap1\n      0x0100\n      exp\n      swap1\n      div\n      0xffffffffffffffffffffffffffffffffffffffff\n      and\n      dup2\n      jump\t// out\n        /* \"contracts/Achievements.sol\":687:775  function setManager(address _address) isOwner public {... */\n    tag_22:\n        /* \"contracts/Achievements.sol\":285:290  owner */\n      0x00\n      dup1\n      sload\n      swap1\n      0x0100\n      exp\n      swap1\n      div\n      0xffffffffffffffffffffffffffffffffffffffff\n      and\n        /* \"contracts/Achievements.sol\":271:290  msg.sender == owner */\n      0xffffffffffffffffffffffffffffffffffffffff\n      and\n        /* \"contracts/Achievements.sol\":271:281  msg.sender */\n      caller\n        /* \"contracts/Achievements.sol\":271:290  msg.sender == owner */\n      0xffffffffffffffffffffffffffffffffffffffff\n      and\n      eq\n        /* \"contracts/Achievements.sol\":263:291  require(msg.sender == owner) */\n      tag_50\n      jumpi\n      0x00\n      dup1\n      revert\n    tag_50:\n        /* \"contracts/Achievements.sol\":760:768  _address */\n      dup1\n        /* \"contracts/Achievements.sol\":750:757  manager */\n      0x01\n      0x00\n        /* \"contracts/Achievements.sol\":750:768  manager = _address */\n      0x0100\n      exp\n      dup2\n      sload\n      dup2\n      0xffffffffffffffffffffffffffffffffffffffff\n      mul\n      not\n      and\n      swap1\n      dup4\n      0xffffffffffffffffffffffffffffffffffffffff\n      and\n      mul\n      or\n      swap1\n      sstore\n      pop\n        /* \"contracts/Achievements.sol\":687:775  function setManager(address _address) isOwner public {... */\n      pop\n      jump\t// out\n        /* \"contracts/Achievements.sol\":398:604  function createAchievement(string memory name, string memory description, string memory reward) public isOwner {... */\n    tag_26:\n        /* \"contracts/Achievements.sol\":285:290  owner */\n      0x00\n      dup1\n      sload\n      swap1\n      0x0100\n      exp\n      swap1\n      div\n      0xffffffffffffffffffffffffffffffffffffffff\n      and\n        /* \"contracts/Achievements.sol\":271:290  msg.sender == owner */\n      0xffffffffffffffffffffffffffffffffffffffff\n      and\n        /* \"contracts/Achievements.sol\":271:281  msg.sender */\n      caller\n        /* \"contracts/Achievements.sol\":271:290  msg.sender == owner */\n      0xffffffffffffffffffffffffffffffffffffffff\n      and\n      eq\n        /* \"contracts/Achievements.sol\":263:291  require(msg.sender == owner) */\n      tag_53\n      jumpi\n      0x00\n      dup1\n      revert\n    tag_53:\n        /* \"contracts/Achievements.sol\":519:531  achievements */\n      0x02\n        /* \"contracts/Achievements.sol\":537:596  Achievement(achievements.length, name, description, reward) */\n      mload(0x40)\n      dup1\n      0x80\n      add\n      0x40\n      mstore\n      dup1\n        /* \"contracts/Achievements.sol\":549:561  achievements */\n      0x02\n        /* \"contracts/Achievements.sol\":549:568  achievements.length */\n      dup1\n      sload\n      swap1\n      pop\n        /* \"contracts/Achievements.sol\":537:596  Achievement(achievements.length, name, description, reward) */\n      dup2\n      mstore\n      0x20\n      add\n        /* \"contracts/Achievements.sol\":570:574  name */\n      dup6\n        /* \"contracts/Achievements.sol\":537:596  Achievement(achievements.length, name, description, reward) */\n      dup2\n      mstore\n      0x20\n      add\n        /* \"contracts/Achievements.sol\":576:587  description */\n      dup5\n        /* \"contracts/Achievements.sol\":537:596  Achievement(achievements.length, name, description, reward) */\n      dup2\n      mstore\n      0x20\n      add\n        /* \"contracts/Achievements.sol\":589:595  reward */\n      dup4\n        /* \"contracts/Achievements.sol\":537:596  Achievement(achievements.length, name, description, reward) */\n      dup2\n      mstore\n      pop\n        /* \"contracts/Achievements.sol\":519:597  achievements.push(Achievement(achievements.length, name, description, reward)) */\n      swap1\n      dup1\n      0x01\n      dup2\n      sload\n      add\n      dup1\n      dup3\n      sstore\n      dup1\n      swap2\n      pop\n      pop\n      0x01\n      swap1\n      sub\n      swap1\n      0x00\n      mstore\n      keccak256(0x00, 0x20)\n      swap1\n      0x04\n      mul\n      add\n      0x00\n      swap1\n      swap2\n      swap1\n      swap2\n      swap1\n      swap2\n      pop\n      0x00\n      dup3\n      add\n      mload\n      dup2\n      0x00\n      add\n      sstore\n      0x20\n      dup3\n      add\n      mload\n      dup2\n      0x01\n      add\n      swap1\n      dup2\n      tag_56\n      swap2\n      swap1\n      tag_57\n      jump\t// in\n    tag_56:\n      pop\n      0x40\n      dup3\n      add\n      mload\n      dup2\n      0x02\n      add\n      swap1\n      dup2\n      tag_58\n      swap2\n      swap1\n      tag_57\n      jump\t// in\n    tag_58:\n      pop\n      0x60\n      dup3\n      add\n      mload\n      dup2\n      0x03\n      add\n      swap1\n      dup2\n      tag_59\n      swap2\n      swap1\n      tag_57\n      jump\t// in\n    tag_59:\n      pop\n      pop\n      pop\n        /* \"contracts/Achievements.sol\":398:604  function createAchievement(string memory name, string memory description, string memory reward) public isOwner {... */\n      pop\n      pop\n      pop\n      jump\t// out\n        /* \"contracts/Achievements.sol\":610:681  function claimAchievement(uint256 id, address user) isManager public {} */\n    tag_30:\n        /* \"contracts/Achievements.sol\":366:373  manager */\n      0x01\n      0x00\n      swap1\n      sload\n      swap1\n      0x0100\n      exp\n      swap1\n      div\n      0xffffffffffffffffffffffffffffffffffffffff\n      and\n        /* \"contracts/Achievements.sol\":352:373  msg.sender == manager */\n      0xffffffffffffffffffffffffffffffffffffffff\n      and\n        /* \"contracts/Achievements.sol\":352:362  msg.sender */\n      caller\n        /* \"contracts/Achievements.sol\":352:373  msg.sender == manager */\n      0xffffffffffffffffffffffffffffffffffffffff\n      and\n      eq\n        /* \"contracts/Achievements.sol\":344:374  require(msg.sender == manager) */\n      tag_61\n      jumpi\n      0x00\n      dup1\n      revert\n    tag_61:\n        /* \"contracts/Achievements.sol\":610:681  function claimAchievement(uint256 id, address user) isManager public {} */\n      pop\n      pop\n      jump\t// out\n        /* \"#utility.yul\":7:82   */\n    tag_63:\n        /* \"#utility.yul\":40:46   */\n      0x00\n        /* \"#utility.yul\":73:75   */\n      0x40\n        /* \"#utility.yul\":67:76   */\n      mload\n        /* \"#utility.yul\":57:76   */\n      swap1\n      pop\n        /* \"#utility.yul\":7:82   */\n      swap1\n      jump\t// out\n        /* \"#utility.yul\":88:205   */\n    tag_64:\n        /* \"#utility.yul\":197:198   */\n      0x00\n        /* \"#utility.yul\":194:195   */\n      dup1\n        /* \"#utility.yul\":187:199   */\n      revert\n        /* \"#utility.yul\":211:328   */\n    tag_65:\n        /* \"#utility.yul\":320:321   */\n      0x00\n        /* \"#utility.yul\":317:318   */\n      dup1\n        /* \"#utility.yul\":310:322   */\n      revert\n        /* \"#utility.yul\":334:411   */\n    tag_66:\n        /* \"#utility.yul\":371:378   */\n      0x00\n        /* \"#utility.yul\":400:405   */\n      dup2\n        /* \"#utility.yul\":389:405   */\n      swap1\n      pop\n        /* \"#utility.yul\":334:411   */\n      swap2\n      swap1\n      pop\n      jump\t// out\n        /* \"#utility.yul\":417:539   */\n    tag_67:\n        /* \"#utility.yul\":490:514   */\n      tag_111\n        /* \"#utility.yul\":508:513   */\n      dup2\n        /* \"#utility.yul\":490:514   */\n      tag_66\n      jump\t// in\n    tag_111:\n        /* \"#utility.yul\":483:488   */\n      dup2\n        /* \"#utility.yul\":480:515   */\n      eq\n        /* \"#utility.yul\":470:533   */\n      tag_112\n      jumpi\n        /* \"#utility.yul\":529:530   */\n      0x00\n        /* \"#utility.yul\":526:527   */\n      dup1\n        /* \"#utility.yul\":519:531   */\n      revert\n        /* \"#utility.yul\":470:533   */\n    tag_112:\n        /* \"#utility.yul\":417:539   */\n      pop\n      jump\t// out\n        /* \"#utility.yul\":545:684   */\n    tag_68:\n        /* \"#utility.yul\":591:596   */\n      0x00\n        /* \"#utility.yul\":629:635   */\n      dup2\n        /* \"#utility.yul\":616:636   */\n      calldataload\n        /* \"#utility.yul\":607:636   */\n      swap1\n      pop\n        /* \"#utility.yul\":645:678   */\n      tag_114\n        /* \"#utility.yul\":672:677   */\n      dup2\n        /* \"#utility.yul\":645:678   */\n      tag_67\n      jump\t// in\n    tag_114:\n        /* \"#utility.yul\":545:684   */\n      swap3\n      swap2\n      pop\n      pop\n      jump\t// out\n        /* \"#utility.yul\":690:1019   */\n    tag_10:\n        /* \"#utility.yul\":749:755   */\n      0x00\n        /* \"#utility.yul\":798:800   */\n      0x20\n        /* \"#utility.yul\":786:795   */\n      dup3\n        /* \"#utility.yul\":777:784   */\n      dup5\n        /* \"#utility.yul\":773:796   */\n      sub\n        /* \"#utility.yul\":769:801   */\n      slt\n        /* \"#utility.yul\":766:885   */\n      iszero\n      tag_116\n      jumpi\n        /* \"#utility.yul\":804:883   */\n      tag_117\n      tag_64\n      jump\t// in\n    tag_117:\n        /* \"#utility.yul\":766:885   */\n    tag_116:\n        /* \"#utility.yul\":924:925   */\n      0x00\n        /* \"#utility.yul\":949:1002   */\n      tag_118\n        /* \"#utility.yul\":994:1001   */\n      dup5\n        /* \"#utility.yul\":985:991   */\n      dup3\n        /* \"#utility.yul\":974:983   */\n      dup6\n        /* \"#utility.yul\":970:992   */\n      add\n        /* \"#utility.yul\":949:1002   */\n      tag_68\n      jump\t// in\n    tag_118:\n        /* \"#utility.yul\":939:1002   */\n      swap2\n      pop\n        /* \"#utility.yul\":895:1012   */\n      pop\n        /* \"#utility.yul\":690:1019   */\n      swap3\n      swap2\n      pop\n      pop\n      jump\t// out\n        /* \"#utility.yul\":1025:1143   */\n    tag_69:\n        /* \"#utility.yul\":1112:1136   */\n      tag_120\n        /* \"#utility.yul\":1130:1135   */\n      dup2\n        /* \"#utility.yul\":1112:1136   */\n      tag_66\n      jump\t// in\n    tag_120:\n        /* \"#utility.yul\":1107:1110   */\n      dup3\n        /* \"#utility.yul\":1100:1137   */\n      mstore\n        /* \"#utility.yul\":1025:1143   */\n      pop\n      pop\n      jump\t// out\n        /* \"#utility.yul\":1149:1248   */\n    tag_70:\n        /* \"#utility.yul\":1201:1207   */\n      0x00\n        /* \"#utility.yul\":1235:1240   */\n      dup2\n        /* \"#utility.yul\":1229:1241   */\n      mload\n        /* \"#utility.yul\":1219:1241   */\n      swap1\n      pop\n        /* \"#utility.yul\":1149:1248   */\n      swap2\n      swap1\n      pop\n      jump\t// out\n        /* \"#utility.yul\":1254:1423   */\n    tag_71:\n        /* \"#utility.yul\":1338:1349   */\n      0x00\n        /* \"#utility.yul\":1372:1378   */\n      dup3\n        /* \"#utility.yul\":1367:1370   */\n      dup3\n        /* \"#utility.yul\":1360:1379   */\n      mstore\n        /* \"#utility.yul\":1412:1416   */\n      0x20\n        /* \"#utility.yul\":1407:1410   */\n      dup3\n        /* \"#utility.yul\":1403:1417   */\n      add\n        /* \"#utility.yul\":1388:1417   */\n      swap1\n      pop\n        /* \"#utility.yul\":1254:1423   */\n      swap3\n      swap2\n      pop\n      pop\n      jump\t// out\n        /* \"#utility.yul\":1429:1675   */\n    tag_72:\n        /* \"#utility.yul\":1510:1511   */\n      0x00\n        /* \"#utility.yul\":1520:1633   */\n    tag_124:\n        /* \"#utility.yul\":1534:1540   */\n      dup4\n        /* \"#utility.yul\":1531:1532   */\n      dup2\n        /* \"#utility.yul\":1528:1541   */\n      lt\n        /* \"#utility.yul\":1520:1633   */\n      iszero\n      tag_126\n      jumpi\n        /* \"#utility.yul\":1619:1620   */\n      dup1\n        /* \"#utility.yul\":1614:1617   */\n      dup3\n        /* \"#utility.yul\":1610:1621   */\n      add\n        /* \"#utility.yul\":1604:1622   */\n      mload\n        /* \"#utility.yul\":1600:1601   */\n      dup2\n        /* \"#utility.yul\":1595:1598   */\n      dup5\n        /* \"#utility.yul\":1591:1602   */\n      add\n        /* \"#utility.yul\":1584:1623   */\n      mstore\n        /* \"#utility.yul\":1556:1558   */\n      0x20\n        /* \"#utility.yul\":1553:1554   */\n      dup2\n        /* \"#utility.yul\":1549:1559   */\n      add\n        /* \"#utility.yul\":1544:1559   */\n      swap1\n      pop\n        /* \"#utility.yul\":1520:1633   */\n      jump(tag_124)\n    tag_126:\n        /* \"#utility.yul\":1667:1668   */\n      0x00\n        /* \"#utility.yul\":1658:1664   */\n      dup5\n        /* \"#utility.yul\":1653:1656   */\n      dup5\n        /* \"#utility.yul\":1649:1665   */\n      add\n        /* \"#utility.yul\":1642:1669   */\n      mstore\n        /* \"#utility.yul\":1491:1675   */\n      pop\n        /* \"#utility.yul\":1429:1675   */\n      pop\n      pop\n      pop\n      jump\t// out\n        /* \"#utility.yul\":1681:1783   */\n    tag_73:\n        /* \"#utility.yul\":1722:1728   */\n      0x00\n        /* \"#utility.yul\":1773:1775   */\n      0x1f\n        /* \"#utility.yul\":1769:1776   */\n      not\n        /* \"#utility.yul\":1764:1766   */\n      0x1f\n        /* \"#utility.yul\":1757:1762   */\n      dup4\n        /* \"#utility.yul\":1753:1767   */\n      add\n        /* \"#utility.yul\":1749:1777   */\n      and\n        /* \"#utility.yul\":1739:1777   */\n      swap1\n      pop\n        /* \"#utility.yul\":1681:1783   */\n      swap2\n      swap1\n      pop\n      jump\t// out\n        /* \"#utility.yul\":1789:2166   */\n    tag_74:\n        /* \"#utility.yul\":1877:1880   */\n      0x00\n        /* \"#utility.yul\":1905:1944   */\n      tag_129\n        /* \"#utility.yul\":1938:1943   */\n      dup3\n        /* \"#utility.yul\":1905:1944   */\n      tag_70\n      jump\t// in\n    tag_129:\n        /* \"#utility.yul\":1960:2031   */\n      tag_130\n        /* \"#utility.yul\":2024:2030   */\n      dup2\n        /* \"#utility.yul\":2019:2022   */\n      dup6\n        /* \"#utility.yul\":1960:2031   */\n      tag_71\n      jump\t// in\n    tag_130:\n        /* \"#utility.yul\":1953:2031   */\n      swap4\n      pop\n        /* \"#utility.yul\":2040:2105   */\n      tag_131\n        /* \"#utility.yul\":2098:2104   */\n      dup2\n        /* \"#utility.yul\":2093:2096   */\n      dup6\n        /* \"#utility.yul\":2086:2090   */\n      0x20\n        /* \"#utility.yul\":2079:2084   */\n      dup7\n        /* \"#utility.yul\":2075:2091   */\n      add\n        /* \"#utility.yul\":2040:2105   */\n      tag_72\n      jump\t// in\n    tag_131:\n        /* \"#utility.yul\":2130:2159   */\n      tag_132\n        /* \"#utility.yul\":2152:2158   */\n      dup2\n        /* \"#utility.yul\":2130:2159   */\n      tag_73\n      jump\t// in\n    tag_132:\n        /* \"#utility.yul\":2125:2128   */\n      dup5\n        /* \"#utility.yul\":2121:2160   */\n      add\n        /* \"#utility.yul\":2114:2160   */\n      swap2\n      pop\n        /* \"#utility.yul\":1881:2166   */\n      pop\n        /* \"#utility.yul\":1789:2166   */\n      swap3\n      swap2\n      pop\n      pop\n      jump\t// out\n        /* \"#utility.yul\":2172:2998   */\n    tag_13:\n        /* \"#utility.yul\":2409:2413   */\n      0x00\n        /* \"#utility.yul\":2447:2450   */\n      0x80\n        /* \"#utility.yul\":2436:2445   */\n      dup3\n        /* \"#utility.yul\":2432:2451   */\n      add\n        /* \"#utility.yul\":2424:2451   */\n      swap1\n      pop\n        /* \"#utility.yul\":2461:2532   */\n      tag_134\n        /* \"#utility.yul\":2529:2530   */\n      0x00\n        /* \"#utility.yul\":2518:2527   */\n      dup4\n        /* \"#utility.yul\":2514:2531   */\n      add\n        /* \"#utility.yul\":2505:2511   */\n      dup8\n        /* \"#utility.yul\":2461:2532   */\n      tag_69\n      jump\t// in\n    tag_134:\n        /* \"#utility.yul\":2579:2588   */\n      dup2\n        /* \"#utility.yul\":2573:2577   */\n      dup2\n        /* \"#utility.yul\":2569:2589   */\n      sub\n        /* \"#utility.yul\":2564:2566   */\n      0x20\n        /* \"#utility.yul\":2553:2562   */\n      dup4\n        /* \"#utility.yul\":2549:2567   */\n      add\n        /* \"#utility.yul\":2542:2590   */\n      mstore\n        /* \"#utility.yul\":2607:2685   */\n      tag_135\n        /* \"#utility.yul\":2680:2684   */\n      dup2\n        /* \"#utility.yul\":2671:2677   */\n      dup7\n        /* \"#utility.yul\":2607:2685   */\n      tag_74\n      jump\t// in\n    tag_135:\n        /* \"#utility.yul\":2599:2685   */\n      swap1\n      pop\n        /* \"#utility.yul\":2732:2741   */\n      dup2\n        /* \"#utility.yul\":2726:2730   */\n      dup2\n        /* \"#utility.yul\":2722:2742   */\n      sub\n        /* \"#utility.yul\":2717:2719   */\n      0x40\n        /* \"#utility.yul\":2706:2715   */\n      dup4\n        /* \"#utility.yul\":2702:2720   */\n      add\n        /* \"#utility.yul\":2695:2743   */\n      mstore\n        /* \"#utility.yul\":2760:2838   */\n      tag_136\n        /* \"#utility.yul\":2833:2837   */\n      dup2\n        /* \"#utility.yul\":2824:2830   */\n      dup6\n        /* \"#utility.yul\":2760:2838   */\n      tag_74\n      jump\t// in\n    tag_136:\n        /* \"#utility.yul\":2752:2838   */\n      swap1\n      pop\n        /* \"#utility.yul\":2885:2894   */\n      dup2\n        /* \"#utility.yul\":2879:2883   */\n      dup2\n        /* \"#utility.yul\":2875:2895   */\n      sub\n        /* \"#utility.yul\":2870:2872   */\n      0x60\n        /* \"#utility.yul\":2859:2868   */\n      dup4\n        /* \"#utility.yul\":2855:2873   */\n      add\n        /* \"#utility.yul\":2848:2896   */\n      mstore\n        /* \"#utility.yul\":2913:2991   */\n      tag_137\n        /* \"#utility.yul\":2986:2990   */\n      dup2\n        /* \"#utility.yul\":2977:2983   */\n      dup5\n        /* \"#utility.yul\":2913:2991   */\n      tag_74\n      jump\t// in\n    tag_137:\n        /* \"#utility.yul\":2905:2991   */\n      swap1\n      pop\n        /* \"#utility.yul\":2172:2998   */\n      swap6\n      swap5\n      pop\n      pop\n      pop\n      pop\n      pop\n      jump\t// out\n        /* \"#utility.yul\":3004:3130   */\n    tag_75:\n        /* \"#utility.yul\":3041:3048   */\n      0x00\n        /* \"#utility.yul\":3081:3123   */\n      0xffffffffffffffffffffffffffffffffffffffff\n        /* \"#utility.yul\":3074:3079   */\n      dup3\n        /* \"#utility.yul\":3070:3124   */\n      and\n        /* \"#utility.yul\":3059:3124   */\n      swap1\n      pop\n        /* \"#utility.yul\":3004:3130   */\n      swap2\n      swap1\n      pop\n      jump\t// out\n        /* \"#utility.yul\":3136:3232   */\n    tag_76:\n        /* \"#utility.yul\":3173:3180   */\n      0x00\n        /* \"#utility.yul\":3202:3226   */\n      tag_140\n        /* \"#utility.yul\":3220:3225   */\n      dup3\n        /* \"#utility.yul\":3202:3226   */\n      tag_75\n      jump\t// in\n    tag_140:\n        /* \"#utility.yul\":3191:3226   */\n      swap1\n      pop\n        /* \"#utility.yul\":3136:3232   */\n      swap2\n      swap1\n      pop\n      jump\t// out\n        /* \"#utility.yul\":3238:3356   */\n    tag_77:\n        /* \"#utility.yul\":3325:3349   */\n      tag_142\n        /* \"#utility.yul\":3343:3348   */\n      dup2\n        /* \"#utility.yul\":3325:3349   */\n      tag_76\n      jump\t// in\n    tag_142:\n        /* \"#utility.yul\":3320:3323   */\n      dup3\n        /* \"#utility.yul\":3313:3350   */\n      mstore\n        /* \"#utility.yul\":3238:3356   */\n      pop\n      pop\n      jump\t// out\n        /* \"#utility.yul\":3362:3584   */\n    tag_18:\n        /* \"#utility.yul\":3455:3459   */\n      0x00\n        /* \"#utility.yul\":3493:3495   */\n      0x20\n        /* \"#utility.yul\":3482:3491   */\n      dup3\n        /* \"#utility.yul\":3478:3496   */\n      add\n        /* \"#utility.yul\":3470:3496   */\n      swap1\n      pop\n        /* \"#utility.yul\":3506:3577   */\n      tag_144\n        /* \"#utility.yul\":3574:3575   */\n      0x00\n        /* \"#utility.yul\":3563:3572   */\n      dup4\n        /* \"#utility.yul\":3559:3576   */\n      add\n        /* \"#utility.yul\":3550:3556   */\n      dup5\n        /* \"#utility.yul\":3506:3577   */\n      tag_77\n      jump\t// in\n    tag_144:\n        /* \"#utility.yul\":3362:3584   */\n      swap3\n      swap2\n      pop\n      pop\n      jump\t// out\n        /* \"#utility.yul\":3590:3712   */\n    tag_78:\n        /* \"#utility.yul\":3663:3687   */\n      tag_146\n        /* \"#utility.yul\":3681:3686   */\n      dup2\n        /* \"#utility.yul\":3663:3687   */\n      tag_76\n      jump\t// in\n    tag_146:\n        /* \"#utility.yul\":3656:3661   */\n      dup2\n        /* \"#utility.yul\":3653:3688   */\n      eq\n        /* \"#utility.yul\":3643:3706   */\n      tag_147\n      jumpi\n        /* \"#utility.yul\":3702:3703   */\n      0x00\n        /* \"#utility.yul\":3699:3700   */\n      dup1\n        /* \"#utility.yul\":3692:3704   */\n      revert\n        /* \"#utility.yul\":3643:3706   */\n    tag_147:\n        /* \"#utility.yul\":3590:3712   */\n      pop\n      jump\t// out\n        /* \"#utility.yul\":3718:3857   */\n    tag_79:\n        /* \"#utility.yul\":3764:3769   */\n      0x00\n        /* \"#utility.yul\":3802:3808   */\n      dup2\n        /* \"#utility.yul\":3789:3809   */\n      calldataload\n        /* \"#utility.yul\":3780:3809   */\n      swap1\n      pop\n        /* \"#utility.yul\":3818:3851   */\n      tag_149\n        /* \"#utility.yul\":3845:3850   */\n      dup2\n        /* \"#utility.yul\":3818:3851   */\n      tag_78\n      jump\t// in\n    tag_149:\n        /* \"#utility.yul\":3718:3857   */\n      swap3\n      swap2\n      pop\n      pop\n      jump\t// out\n        /* \"#utility.yul\":3863:4192   */\n    tag_21:\n        /* \"#utility.yul\":3922:3928   */\n      0x00\n        /* \"#utility.yul\":3971:3973   */\n      0x20\n        /* \"#utility.yul\":3959:3968   */\n      dup3\n        /* \"#utility.yul\":3950:3957   */\n      dup5\n        /* \"#utility.yul\":3946:3969   */\n      sub\n        /* \"#utility.yul\":3942:3974   */\n      slt\n        /* \"#utility.yul\":3939:4058   */\n      iszero\n      tag_151\n      jumpi\n        /* \"#utility.yul\":3977:4056   */\n      tag_152\n      tag_64\n      jump\t// in\n    tag_152:\n        /* \"#utility.yul\":3939:4058   */\n    tag_151:\n        /* \"#utility.yul\":4097:4098   */\n      0x00\n        /* \"#utility.yul\":4122:4175   */\n      tag_153\n        /* \"#utility.yul\":4167:4174   */\n      dup5\n        /* \"#utility.yul\":4158:4164   */\n      dup3\n        /* \"#utility.yul\":4147:4156   */\n      dup6\n        /* \"#utility.yul\":4143:4165   */\n      add\n        /* \"#utility.yul\":4122:4175   */\n      tag_79\n      jump\t// in\n    tag_153:\n        /* \"#utility.yul\":4112:4175   */\n      swap2\n      pop\n        /* \"#utility.yul\":4068:4185   */\n      pop\n        /* \"#utility.yul\":3863:4192   */\n      swap3\n      swap2\n      pop\n      pop\n      jump\t// out\n        /* \"#utility.yul\":4198:4315   */\n    tag_80:\n        /* \"#utility.yul\":4307:4308   */\n      0x00\n        /* \"#utility.yul\":4304:4305   */\n      dup1\n        /* \"#utility.yul\":4297:4309   */\n      revert\n        /* \"#utility.yul\":4321:4438   */\n    tag_81:\n        /* \"#utility.yul\":4430:4431   */\n      0x00\n        /* \"#utility.yul\":4427:4428   */\n      dup1\n        /* \"#utility.yul\":4420:4432   */\n      revert\n        /* \"#utility.yul\":4444:4624   */\n    tag_82:\n        /* \"#utility.yul\":4492:4569   */\n      0x4e487b7100000000000000000000000000000000000000000000000000000000\n        /* \"#utility.yul\":4489:4490   */\n      0x00\n        /* \"#utility.yul\":4482:4570   */\n      mstore\n        /* \"#utility.yul\":4589:4593   */\n      0x41\n        /* \"#utility.yul\":4586:4587   */\n      0x04\n        /* \"#utility.yul\":4579:4594   */\n      mstore\n        /* \"#utility.yul\":4613:4617   */\n      0x24\n        /* \"#utility.yul\":4610:4611   */\n      0x00\n        /* \"#utility.yul\":4603:4618   */\n      revert\n        /* \"#utility.yul\":4630:4911   */\n    tag_83:\n        /* \"#utility.yul\":4713:4740   */\n      tag_158\n        /* \"#utility.yul\":4735:4739   */\n      dup3\n        /* \"#utility.yul\":4713:4740   */\n      tag_73\n      jump\t// in\n    tag_158:\n        /* \"#utility.yul\":4705:4711   */\n      dup2\n        /* \"#utility.yul\":4701:4741   */\n      add\n        /* \"#utility.yul\":4843:4849   */\n      dup2\n        /* \"#utility.yul\":4831:4841   */\n      dup2\n        /* \"#utility.yul\":4828:4850   */\n      lt\n        /* \"#utility.yul\":4807:4825   */\n      0xffffffffffffffff\n        /* \"#utility.yul\":4795:4805   */\n      dup3\n        /* \"#utility.yul\":4792:4826   */\n      gt\n        /* \"#utility.yul\":4789:4851   */\n      or\n        /* \"#utility.yul\":4786:4874   */\n      iszero\n      tag_159\n      jumpi\n        /* \"#utility.yul\":4854:4872   */\n      tag_160\n      tag_82\n      jump\t// in\n    tag_160:\n        /* \"#utility.yul\":4786:4874   */\n    tag_159:\n        /* \"#utility.yul\":4894:4904   */\n      dup1\n        /* \"#utility.yul\":4890:4892   */\n      0x40\n        /* \"#utility.yul\":4883:4905   */\n      mstore\n        /* \"#utility.yul\":4673:4911   */\n      pop\n        /* \"#utility.yul\":4630:4911   */\n      pop\n      pop\n      jump\t// out\n        /* \"#utility.yul\":4917:5046   */\n    tag_84:\n        /* \"#utility.yul\":4951:4957   */\n      0x00\n        /* \"#utility.yul\":4978:4998   */\n      tag_162\n      tag_63\n      jump\t// in\n    tag_162:\n        /* \"#utility.yul\":4968:4998   */\n      swap1\n      pop\n        /* \"#utility.yul\":5007:5040   */\n      tag_163\n        /* \"#utility.yul\":5035:5039   */\n      dup3\n        /* \"#utility.yul\":5027:5033   */\n      dup3\n        /* \"#utility.yul\":5007:5040   */\n      tag_83\n      jump\t// in\n    tag_163:\n        /* \"#utility.yul\":4917:5046   */\n      swap2\n      swap1\n      pop\n      jump\t// out\n        /* \"#utility.yul\":5052:5360   */\n    tag_85:\n        /* \"#utility.yul\":5114:5118   */\n      0x00\n        /* \"#utility.yul\":5204:5222   */\n      0xffffffffffffffff\n        /* \"#utility.yul\":5196:5202   */\n      dup3\n        /* \"#utility.yul\":5193:5223   */\n      gt\n        /* \"#utility.yul\":5190:5246   */\n      iszero\n      tag_165\n      jumpi\n        /* \"#utility.yul\":5226:5244   */\n      tag_166\n      tag_82\n      jump\t// in\n    tag_166:\n        /* \"#utility.yul\":5190:5246   */\n    tag_165:\n        /* \"#utility.yul\":5264:5293   */\n      tag_167\n        /* \"#utility.yul\":5286:5292   */\n      dup3\n        /* \"#utility.yul\":5264:5293   */\n      tag_73\n      jump\t// in\n    tag_167:\n        /* \"#utility.yul\":5256:5293   */\n      swap1\n      pop\n        /* \"#utility.yul\":5348:5352   */\n      0x20\n        /* \"#utility.yul\":5342:5346   */\n      dup2\n        /* \"#utility.yul\":5338:5353   */\n      add\n        /* \"#utility.yul\":5330:5353   */\n      swap1\n      pop\n        /* \"#utility.yul\":5052:5360   */\n      swap2\n      swap1\n      pop\n      jump\t// out\n        /* \"#utility.yul\":5366:5512   */\n    tag_86:\n        /* \"#utility.yul\":5463:5469   */\n      dup3\n        /* \"#utility.yul\":5458:5461   */\n      dup2\n        /* \"#utility.yul\":5453:5456   */\n      dup4\n        /* \"#utility.yul\":5440:5470   */\n      calldatacopy\n        /* \"#utility.yul\":5504:5505   */\n      0x00\n        /* \"#utility.yul\":5495:5501   */\n      dup4\n        /* \"#utility.yul\":5490:5493   */\n      dup4\n        /* \"#utility.yul\":5486:5502   */\n      add\n        /* \"#utility.yul\":5479:5506   */\n      mstore\n        /* \"#utility.yul\":5366:5512   */\n      pop\n      pop\n      pop\n      jump\t// out\n        /* \"#utility.yul\":5518:5943   */\n    tag_87:\n        /* \"#utility.yul\":5596:5601   */\n      0x00\n        /* \"#utility.yul\":5621:5687   */\n      tag_170\n        /* \"#utility.yul\":5637:5686   */\n      tag_171\n        /* \"#utility.yul\":5679:5685   */\n      dup5\n        /* \"#utility.yul\":5637:5686   */\n      tag_85\n      jump\t// in\n    tag_171:\n        /* \"#utility.yul\":5621:5687   */\n      tag_84\n      jump\t// in\n    tag_170:\n        /* \"#utility.yul\":5612:5687   */\n      swap1\n      pop\n        /* \"#utility.yul\":5710:5716   */\n      dup3\n        /* \"#utility.yul\":5703:5708   */\n      dup2\n        /* \"#utility.yul\":5696:5717   */\n      mstore\n        /* \"#utility.yul\":5748:5752   */\n      0x20\n        /* \"#utility.yul\":5741:5746   */\n      dup2\n        /* \"#utility.yul\":5737:5753   */\n      add\n        /* \"#utility.yul\":5786:5789   */\n      dup5\n        /* \"#utility.yul\":5777:5783   */\n      dup5\n        /* \"#utility.yul\":5772:5775   */\n      dup5\n        /* \"#utility.yul\":5768:5784   */\n      add\n        /* \"#utility.yul\":5765:5790   */\n      gt\n        /* \"#utility.yul\":5762:5874   */\n      iszero\n      tag_172\n      jumpi\n        /* \"#utility.yul\":5793:5872   */\n      tag_173\n      tag_81\n      jump\t// in\n    tag_173:\n        /* \"#utility.yul\":5762:5874   */\n    tag_172:\n        /* \"#utility.yul\":5883:5937   */\n      tag_174\n        /* \"#utility.yul\":5930:5936   */\n      dup5\n        /* \"#utility.yul\":5925:5928   */\n      dup3\n        /* \"#utility.yul\":5920:5923   */\n      dup6\n        /* \"#utility.yul\":5883:5937   */\n      tag_86\n      jump\t// in\n    tag_174:\n        /* \"#utility.yul\":5602:5943   */\n      pop\n        /* \"#utility.yul\":5518:5943   */\n      swap4\n      swap3\n      pop\n      pop\n      pop\n      jump\t// out\n        /* \"#utility.yul\":5963:6303   */\n    tag_88:\n        /* \"#utility.yul\":6019:6024   */\n      0x00\n        /* \"#utility.yul\":6068:6071   */\n      dup3\n        /* \"#utility.yul\":6061:6065   */\n      0x1f\n        /* \"#utility.yul\":6053:6059   */\n      dup4\n        /* \"#utility.yul\":6049:6066   */\n      add\n        /* \"#utility.yul\":6045:6072   */\n      slt\n        /* \"#utility.yul\":6035:6157   */\n      tag_176\n      jumpi\n        /* \"#utility.yul\":6076:6155   */\n      tag_177\n      tag_80\n      jump\t// in\n    tag_177:\n        /* \"#utility.yul\":6035:6157   */\n    tag_176:\n        /* \"#utility.yul\":6193:6199   */\n      dup2\n        /* \"#utility.yul\":6180:6200   */\n      calldataload\n        /* \"#utility.yul\":6218:6297   */\n      tag_178\n        /* \"#utility.yul\":6293:6296   */\n      dup5\n        /* \"#utility.yul\":6285:6291   */\n      dup3\n        /* \"#utility.yul\":6278:6282   */\n      0x20\n        /* \"#utility.yul\":6270:6276   */\n      dup7\n        /* \"#utility.yul\":6266:6283   */\n      add\n        /* \"#utility.yul\":6218:6297   */\n      tag_87\n      jump\t// in\n    tag_178:\n        /* \"#utility.yul\":6209:6297   */\n      swap2\n      pop\n        /* \"#utility.yul\":6025:6303   */\n      pop\n        /* \"#utility.yul\":5963:6303   */\n      swap3\n      swap2\n      pop\n      pop\n      jump\t// out\n        /* \"#utility.yul\":6309:7468   */\n    tag_25:\n        /* \"#utility.yul\":6416:6422   */\n      0x00\n        /* \"#utility.yul\":6424:6430   */\n      dup1\n        /* \"#utility.yul\":6432:6438   */\n      0x00\n        /* \"#utility.yul\":6481:6483   */\n      0x60\n        /* \"#utility.yul\":6469:6478   */\n      dup5\n        /* \"#utility.yul\":6460:6467   */\n      dup7\n        /* \"#utility.yul\":6456:6479   */\n      sub\n        /* \"#utility.yul\":6452:6484   */\n      slt\n        /* \"#utility.yul\":6449:6568   */\n      iszero\n      tag_180\n      jumpi\n        /* \"#utility.yul\":6487:6566   */\n      tag_181\n      tag_64\n      jump\t// in\n    tag_181:\n        /* \"#utility.yul\":6449:6568   */\n    tag_180:\n        /* \"#utility.yul\":6635:6636   */\n      0x00\n        /* \"#utility.yul\":6624:6633   */\n      dup5\n        /* \"#utility.yul\":6620:6637   */\n      add\n        /* \"#utility.yul\":6607:6638   */\n      calldataload\n        /* \"#utility.yul\":6665:6683   */\n      0xffffffffffffffff\n        /* \"#utility.yul\":6657:6663   */\n      dup2\n        /* \"#utility.yul\":6654:6684   */\n      gt\n        /* \"#utility.yul\":6651:6768   */\n      iszero\n      tag_182\n      jumpi\n        /* \"#utility.yul\":6687:6766   */\n      tag_183\n      tag_65\n      jump\t// in\n    tag_183:\n        /* \"#utility.yul\":6651:6768   */\n    tag_182:\n        /* \"#utility.yul\":6792:6855   */\n      tag_184\n        /* \"#utility.yul\":6847:6854   */\n      dup7\n        /* \"#utility.yul\":6838:6844   */\n      dup3\n        /* \"#utility.yul\":6827:6836   */\n      dup8\n        /* \"#utility.yul\":6823:6845   */\n      add\n        /* \"#utility.yul\":6792:6855   */\n      tag_88\n      jump\t// in\n    tag_184:\n        /* \"#utility.yul\":6782:6855   */\n      swap4\n      pop\n        /* \"#utility.yul\":6578:6865   */\n      pop\n        /* \"#utility.yul\":6932:6934   */\n      0x20\n        /* \"#utility.yul\":6921:6930   */\n      dup5\n        /* \"#utility.yul\":6917:6935   */\n      add\n        /* \"#utility.yul\":6904:6936   */\n      calldataload\n        /* \"#utility.yul\":6963:6981   */\n      0xffffffffffffffff\n        /* \"#utility.yul\":6955:6961   */\n      dup2\n        /* \"#utility.yul\":6952:6982   */\n      gt\n        /* \"#utility.yul\":6949:7066   */\n      iszero\n      tag_185\n      jumpi\n        /* \"#utility.yul\":6985:7064   */\n      tag_186\n      tag_65\n      jump\t// in\n    tag_186:\n        /* \"#utility.yul\":6949:7066   */\n    tag_185:\n        /* \"#utility.yul\":7090:7153   */\n      tag_187\n        /* \"#utility.yul\":7145:7152   */\n      dup7\n        /* \"#utility.yul\":7136:7142   */\n      dup3\n        /* \"#utility.yul\":7125:7134   */\n      dup8\n        /* \"#utility.yul\":7121:7143   */\n      add\n        /* \"#utility.yul\":7090:7153   */\n      tag_88\n      jump\t// in\n    tag_187:\n        /* \"#utility.yul\":7080:7153   */\n      swap3\n      pop\n        /* \"#utility.yul\":6875:7163   */\n      pop\n        /* \"#utility.yul\":7230:7232   */\n      0x40\n        /* \"#utility.yul\":7219:7228   */\n      dup5\n        /* \"#utility.yul\":7215:7233   */\n      add\n        /* \"#utility.yul\":7202:7234   */\n      calldataload\n        /* \"#utility.yul\":7261:7279   */\n      0xffffffffffffffff\n        /* \"#utility.yul\":7253:7259   */\n      dup2\n        /* \"#utility.yul\":7250:7280   */\n      gt\n        /* \"#utility.yul\":7247:7364   */\n      iszero\n      tag_188\n      jumpi\n        /* \"#utility.yul\":7283:7362   */\n      tag_189\n      tag_65\n      jump\t// in\n    tag_189:\n        /* \"#utility.yul\":7247:7364   */\n    tag_188:\n        /* \"#utility.yul\":7388:7451   */\n      tag_190\n        /* \"#utility.yul\":7443:7450   */\n      dup7\n        /* \"#utility.yul\":7434:7440   */\n      dup3\n        /* \"#utility.yul\":7423:7432   */\n      dup8\n        /* \"#utility.yul\":7419:7441   */\n      add\n        /* \"#utility.yul\":7388:7451   */\n      tag_88\n      jump\t// in\n    tag_190:\n        /* \"#utility.yul\":7378:7451   */\n      swap2\n      pop\n        /* \"#utility.yul\":7173:7461   */\n      pop\n        /* \"#utility.yul\":6309:7468   */\n      swap3\n      pop\n      swap3\n      pop\n      swap3\n      jump\t// out\n        /* \"#utility.yul\":7474:7948   */\n    tag_29:\n        /* \"#utility.yul\":7542:7548   */\n      0x00\n        /* \"#utility.yul\":7550:7556   */\n      dup1\n        /* \"#utility.yul\":7599:7601   */\n      0x40\n        /* \"#utility.yul\":7587:7596   */\n      dup4\n        /* \"#utility.yul\":7578:7585   */\n      dup6\n        /* \"#utility.yul\":7574:7597   */\n      sub\n        /* \"#utility.yul\":7570:7602   */\n      slt\n        /* \"#utility.yul\":7567:7686   */\n      iszero\n      tag_192\n      jumpi\n        /* \"#utility.yul\":7605:7684   */\n      tag_193\n      tag_64\n      jump\t// in\n    tag_193:\n        /* \"#utility.yul\":7567:7686   */\n    tag_192:\n        /* \"#utility.yul\":7725:7726   */\n      0x00\n        /* \"#utility.yul\":7750:7803   */\n      tag_194\n        /* \"#utility.yul\":7795:7802   */\n      dup6\n        /* \"#utility.yul\":7786:7792   */\n      dup3\n        /* \"#utility.yul\":7775:7784   */\n      dup7\n        /* \"#utility.yul\":7771:7793   */\n      add\n        /* \"#utility.yul\":7750:7803   */\n      tag_68\n      jump\t// in\n    tag_194:\n        /* \"#utility.yul\":7740:7803   */\n      swap3\n      pop\n        /* \"#utility.yul\":7696:7813   */\n      pop\n        /* \"#utility.yul\":7852:7854   */\n      0x20\n        /* \"#utility.yul\":7878:7931   */\n      tag_195\n        /* \"#utility.yul\":7923:7930   */\n      dup6\n        /* \"#utility.yul\":7914:7920   */\n      dup3\n        /* \"#utility.yul\":7903:7912   */\n      dup7\n        /* \"#utility.yul\":7899:7921   */\n      add\n        /* \"#utility.yul\":7878:7931   */\n      tag_79\n      jump\t// in\n    tag_195:\n        /* \"#utility.yul\":7868:7931   */\n      swap2\n      pop\n        /* \"#utility.yul\":7823:7941   */\n      pop\n        /* \"#utility.yul\":7474:7948   */\n      swap3\n      pop\n      swap3\n      swap1\n      pop\n      jump\t// out\n        /* \"#utility.yul\":7954:8134   */\n    tag_89:\n        /* \"#utility.yul\":8002:8079   */\n      0x4e487b7100000000000000000000000000000000000000000000000000000000\n        /* \"#utility.yul\":7999:8000   */\n      0x00\n        /* \"#utility.yul\":7992:8080   */\n      mstore\n        /* \"#utility.yul\":8099:8103   */\n      0x22\n        /* \"#utility.yul\":8096:8097   */\n      0x04\n        /* \"#utility.yul\":8089:8104   */\n      mstore\n        /* \"#utility.yul\":8123:8127   */\n      0x24\n        /* \"#utility.yul\":8120:8121   */\n      0x00\n        /* \"#utility.yul\":8113:8128   */\n      revert\n        /* \"#utility.yul\":8140:8460   */\n    tag_34:\n        /* \"#utility.yul\":8184:8190   */\n      0x00\n        /* \"#utility.yul\":8221:8222   */\n      0x02\n        /* \"#utility.yul\":8215:8219   */\n      dup3\n        /* \"#utility.yul\":8211:8223   */\n      div\n        /* \"#utility.yul\":8201:8223   */\n      swap1\n      pop\n        /* \"#utility.yul\":8268:8269   */\n      0x01\n        /* \"#utility.yul\":8262:8266   */\n      dup3\n        /* \"#utility.yul\":8258:8270   */\n      and\n        /* \"#utility.yul\":8289:8307   */\n      dup1\n        /* \"#utility.yul\":8279:8360   */\n      tag_198\n      jumpi\n        /* \"#utility.yul\":8345:8349   */\n      0x7f\n        /* \"#utility.yul\":8337:8343   */\n      dup3\n        /* \"#utility.yul\":8333:8350   */\n      and\n        /* \"#utility.yul\":8323:8350   */\n      swap2\n      pop\n        /* \"#utility.yul\":8279:8360   */\n    tag_198:\n        /* \"#utility.yul\":8407:8409   */\n      0x20\n        /* \"#utility.yul\":8399:8405   */\n      dup3\n        /* \"#utility.yul\":8396:8410   */\n      lt\n        /* \"#utility.yul\":8376:8394   */\n      dup2\n        /* \"#utility.yul\":8373:8411   */\n      sub\n        /* \"#utility.yul\":8370:8454   */\n      tag_199\n      jumpi\n        /* \"#utility.yul\":8426:8444   */\n      tag_200\n      tag_89\n      jump\t// in\n    tag_200:\n        /* \"#utility.yul\":8370:8454   */\n    tag_199:\n        /* \"#utility.yul\":8191:8460   */\n      pop\n        /* \"#utility.yul\":8140:8460   */\n      swap2\n      swap1\n      pop\n      jump\t// out\n        /* \"#utility.yul\":8466:8607   */\n    tag_90:\n        /* \"#utility.yul\":8515:8519   */\n      0x00\n        /* \"#utility.yul\":8538:8541   */\n      dup2\n        /* \"#utility.yul\":8530:8541   */\n      swap1\n      pop\n        /* \"#utility.yul\":8561:8564   */\n      dup2\n        /* \"#utility.yul\":8558:8559   */\n      0x00\n        /* \"#utility.yul\":8551:8565   */\n      mstore\n        /* \"#utility.yul\":8595:8599   */\n      0x20\n        /* \"#utility.yul\":8592:8593   */\n      0x00\n        /* \"#utility.yul\":8582:8600   */\n      keccak256\n        /* \"#utility.yul\":8574:8600   */\n      swap1\n      pop\n        /* \"#utility.yul\":8466:8607   */\n      swap2\n      swap1\n      pop\n      jump\t// out\n        /* \"#utility.yul\":8613:8706   */\n    tag_91:\n        /* \"#utility.yul\":8650:8656   */\n      0x00\n        /* \"#utility.yul\":8697:8699   */\n      0x20\n        /* \"#utility.yul\":8692:8694   */\n      0x1f\n        /* \"#utility.yul\":8685:8690   */\n      dup4\n        /* \"#utility.yul\":8681:8695   */\n      add\n        /* \"#utility.yul\":8677:8700   */\n      div\n        /* \"#utility.yul\":8667:8700   */\n      swap1\n      pop\n        /* \"#utility.yul\":8613:8706   */\n      swap2\n      swap1\n      pop\n      jump\t// out\n        /* \"#utility.yul\":8712:8819   */\n    tag_92:\n        /* \"#utility.yul\":8756:8764   */\n      0x00\n        /* \"#utility.yul\":8806:8811   */\n      dup3\n        /* \"#utility.yul\":8800:8804   */\n      dup3\n        /* \"#utility.yul\":8796:8812   */\n      shl\n        /* \"#utility.yul\":8775:8812   */\n      swap1\n      pop\n        /* \"#utility.yul\":8712:8819   */\n      swap3\n      swap2\n      pop\n      pop\n      jump\t// out\n        /* \"#utility.yul\":8825:9218   */\n    tag_93:\n        /* \"#utility.yul\":8894:8900   */\n      0x00\n        /* \"#utility.yul\":8944:8945   */\n      0x08\n        /* \"#utility.yul\":8932:8942   */\n      dup4\n        /* \"#utility.yul\":8928:8946   */\n      mul\n        /* \"#utility.yul\":8967:9064   */\n      tag_205\n        /* \"#utility.yul\":8997:9063   */\n      0xffffffffffffffffffffffffffffffffffffffffffffffffffffffffffffffff\n        /* \"#utility.yul\":8986:8995   */\n      dup3\n        /* \"#utility.yul\":8967:9064   */\n      tag_92\n      jump\t// in\n    tag_205:\n        /* \"#utility.yul\":9085:9124   */\n      tag_206\n        /* \"#utility.yul\":9115:9123   */\n      dup7\n        /* \"#utility.yul\":9104:9113   */\n      dup4\n        /* \"#utility.yul\":9085:9124   */\n      tag_92\n      jump\t// in\n    tag_206:\n        /* \"#utility.yul\":9073:9124   */\n      swap6\n      pop\n        /* \"#utility.yul\":9157:9161   */\n      dup1\n        /* \"#utility.yul\":9153:9162   */\n      not\n        /* \"#utility.yul\":9146:9151   */\n      dup5\n        /* \"#utility.yul\":9142:9163   */\n      and\n        /* \"#utility.yul\":9133:9163   */\n      swap4\n      pop\n        /* \"#utility.yul\":9206:9210   */\n      dup1\n        /* \"#utility.yul\":9196:9204   */\n      dup7\n        /* \"#utility.yul\":9192:9211   */\n      and\n        /* \"#utility.yul\":9185:9190   */\n      dup5\n        /* \"#utility.yul\":9182:9212   */\n      or\n        /* \"#utility.yul\":9172:9212   */\n      swap3\n      pop\n        /* \"#utility.yul\":8901:9218   */\n      pop\n      pop\n        /* \"#utility.yul\":8825:9218   */\n      swap4\n      swap3\n      pop\n      pop\n      pop\n      jump\t// out\n        /* \"#utility.yul\":9224:9284   */\n    tag_94:\n        /* \"#utility.yul\":9252:9255   */\n      0x00\n        /* \"#utility.yul\":9273:9278   */\n      dup2\n        /* \"#utility.yul\":9266:9278   */\n      swap1\n      pop\n        /* \"#utility.yul\":9224:9284   */\n      swap2\n      swap1\n      pop\n      jump\t// out\n        /* \"#utility.yul\":9290:9432   */\n    tag_95:\n        /* \"#utility.yul\":9340:9349   */\n      0x00\n        /* \"#utility.yul\":9373:9426   */\n      tag_209\n        /* \"#utility.yul\":9391:9425   */\n      tag_210\n        /* \"#utility.yul\":9400:9424   */\n      tag_211\n        /* \"#utility.yul\":9418:9423   */\n      dup5\n        /* \"#utility.yul\":9400:9424   */\n      tag_66\n      jump\t// in\n    tag_211:\n        /* \"#utility.yul\":9391:9425   */\n      tag_94\n      jump\t// in\n    tag_210:\n        /* \"#utility.yul\":9373:9426   */\n      tag_66\n      jump\t// in\n    tag_209:\n        /* \"#utility.yul\":9360:9426   */\n      swap1\n      pop\n        /* \"#utility.yul\":9290:9432   */\n      swap2\n      swap1\n      pop\n      jump\t// out\n        /* \"#utility.yul\":9438:9513   */\n    tag_96:\n        /* \"#utility.yul\":9481:9484   */\n      0x00\n        /* \"#utility.yul\":9502:9507   */\n      dup2\n        /* \"#utility.yul\":9495:9507   */\n      swap1\n      pop\n        /* \"#utility.yul\":9438:9513   */\n      swap2\n      swap1\n      pop\n      jump\t// out\n        /* \"#utility.yul\":9519:9788   */\n    tag_97:\n        /* \"#utility.yul\":9629:9668   */\n      tag_214\n        /* \"#utility.yul\":9660:9667   */\n      dup4\n        /* \"#utility.yul\":9629:9668   */\n      tag_95\n      jump\t// in\n    tag_214:\n        /* \"#utility.yul\":9690:9781   */\n      tag_215\n        /* \"#utility.yul\":9739:9780   */\n      tag_216\n        /* \"#utility.yul\":9763:9779   */\n      dup3\n        /* \"#utility.yul\":9739:9780   */\n      tag_96\n      jump\t// in\n    tag_216:\n        /* \"#utility.yul\":9731:9737   */\n      dup5\n        /* \"#utility.yul\":9724:9728   */\n      dup5\n        /* \"#utility.yul\":9718:9729   */\n      sload\n        /* \"#utility.yul\":9690:9781   */\n      tag_93\n      jump\t// in\n    tag_215:\n        /* \"#utility.yul\":9684:9688   */\n      dup3\n        /* \"#utility.yul\":9677:9782   */\n      sstore\n        /* \"#utility.yul\":9595:9788   */\n      pop\n        /* \"#utility.yul\":9519:9788   */\n      pop\n      pop\n      pop\n      jump\t// out\n        /* \"#utility.yul\":9794:9867   */\n    tag_98:\n        /* \"#utility.yul\":9839:9842   */\n      0x00\n        /* \"#utility.yul\":9794:9867   */\n      swap1\n      jump\t// out\n        /* \"#utility.yul\":9873:10062   */\n    tag_99:\n        /* \"#utility.yul\":9950:9982   */\n      tag_219\n      tag_98\n      jump\t// in\n    tag_219:\n        /* \"#utility.yul\":9991:10056   */\n      tag_220\n        /* \"#utility.yul\":10049:10055   */\n      dup2\n        /* \"#utility.yul\":10041:10047   */\n      dup5\n        /* \"#utility.yul\":10035:10039   */\n      dup5\n        /* \"#utility.yul\":9991:10056   */\n      tag_97\n      jump\t// in\n    tag_220:\n        /* \"#utility.yul\":9926:10062   */\n      pop\n        /* \"#utility.yul\":9873:10062   */\n      pop\n      pop\n      jump\t// out\n        /* \"#utility.yul\":10068:10254   */\n    tag_100:\n        /* \"#utility.yul\":10128:10248   */\n    tag_222:\n        /* \"#utility.yul\":10145:10148   */\n      dup2\n        /* \"#utility.yul\":10138:10143   */\n      dup2\n        /* \"#utility.yul\":10135:10149   */\n      lt\n        /* \"#utility.yul\":10128:10248   */\n      iszero\n      tag_224\n      jumpi\n        /* \"#utility.yul\":10199:10238   */\n      tag_225\n        /* \"#utility.yul\":10236:10237   */\n      0x00\n        /* \"#utility.yul\":10229:10234   */\n      dup3\n        /* \"#utility.yul\":10199:10238   */\n      tag_99\n      jump\t// in\n    tag_225:\n        /* \"#utility.yul\":10172:10173   */\n      0x01\n        /* \"#utility.yul\":10165:10170   */\n      dup2\n        /* \"#utility.yul\":10161:10174   */\n      add\n        /* \"#utility.yul\":10152:10174   */\n      swap1\n      pop\n        /* \"#utility.yul\":10128:10248   */\n      jump(tag_222)\n    tag_224:\n        /* \"#utility.yul\":10068:10254   */\n      pop\n      pop\n      jump\t// out\n        /* \"#utility.yul\":10260:10803   */\n    tag_101:\n        /* \"#utility.yul\":10361:10363   */\n      0x1f\n        /* \"#utility.yul\":10356:10359   */\n      dup3\n        /* \"#utility.yul\":10353:10364   */\n      gt\n        /* \"#utility.yul\":10350:10796   */\n      iszero\n      tag_227\n      jumpi\n        /* \"#utility.yul\":10395:10433   */\n      tag_228\n        /* \"#utility.yul\":10427:10432   */\n      dup2\n        /* \"#utility.yul\":10395:10433   */\n      tag_90\n      jump\t// in\n    tag_228:\n        /* \"#utility.yul\":10479:10508   */\n      tag_229\n        /* \"#utility.yul\":10497:10507   */\n      dup5\n        /* \"#utility.yul\":10479:10508   */\n      tag_91\n      jump\t// in\n    tag_229:\n        /* \"#utility.yul\":10469:10477   */\n      dup2\n        /* \"#utility.yul\":10465:10509   */\n      add\n        /* \"#utility.yul\":10662:10664   */\n      0x20\n        /* \"#utility.yul\":10650:10660   */\n      dup6\n        /* \"#utility.yul\":10647:10665   */\n      lt\n        /* \"#utility.yul\":10644:10693   */\n      iszero\n      tag_230\n      jumpi\n        /* \"#utility.yul\":10683:10691   */\n      dup2\n        /* \"#utility.yul\":10668:10691   */\n      swap1\n      pop\n        /* \"#utility.yul\":10644:10693   */\n    tag_230:\n        /* \"#utility.yul\":10706:10786   */\n      tag_231\n        /* \"#utility.yul\":10762:10784   */\n      tag_232\n        /* \"#utility.yul\":10780:10783   */\n      dup6\n        /* \"#utility.yul\":10762:10784   */\n      tag_91\n      jump\t// in\n    tag_232:\n        /* \"#utility.yul\":10752:10760   */\n      dup4\n        /* \"#utility.yul\":10748:10785   */\n      add\n        /* \"#utility.yul\":10735:10746   */\n      dup3\n        /* \"#utility.yul\":10706:10786   */\n      tag_100\n      jump\t// in\n    tag_231:\n        /* \"#utility.yul\":10365:10796   */\n      pop\n      pop\n        /* \"#utility.yul\":10350:10796   */\n    tag_227:\n        /* \"#utility.yul\":10260:10803   */\n      pop\n      pop\n      pop\n      jump\t// out\n        /* \"#utility.yul\":10809:10926   */\n    tag_102:\n        /* \"#utility.yul\":10863:10871   */\n      0x00\n        /* \"#utility.yul\":10913:10918   */\n      dup3\n        /* \"#utility.yul\":10907:10911   */\n      dup3\n        /* \"#utility.yul\":10903:10919   */\n      shr\n        /* \"#utility.yul\":10882:10919   */\n      swap1\n      pop\n        /* \"#utility.yul\":10809:10926   */\n      swap3\n      swap2\n      pop\n      pop\n      jump\t// out\n        /* \"#utility.yul\":10932:11101   */\n    tag_103:\n        /* \"#utility.yul\":10976:10982   */\n      0x00\n        /* \"#utility.yul\":11009:11060   */\n      tag_235\n        /* \"#utility.yul\":11057:11058   */\n      0x00\n        /* \"#utility.yul\":11053:11059   */\n      not\n        /* \"#utility.yul\":11045:11050   */\n      dup5\n        /* \"#utility.yul\":11042:11043   */\n      0x08\n        /* \"#utility.yul\":11038:11051   */\n      mul\n        /* \"#utility.yul\":11009:11060   */\n      tag_102\n      jump\t// in\n    tag_235:\n        /* \"#utility.yul\":11005:11061   */\n      not\n        /* \"#utility.yul\":11090:11094   */\n      dup1\n        /* \"#utility.yul\":11084:11088   */\n      dup4\n        /* \"#utility.yul\":11080:11095   */\n      and\n        /* \"#utility.yul\":11070:11095   */\n      swap2\n      pop\n        /* \"#utility.yul\":10983:11101   */\n      pop\n        /* \"#utility.yul\":10932:11101   */\n      swap3\n      swap2\n      pop\n      pop\n      jump\t// out\n        /* \"#utility.yul\":11106:11401   */\n    tag_104:\n        /* \"#utility.yul\":11182:11186   */\n      0x00\n        /* \"#utility.yul\":11328:11357   */\n      tag_237\n        /* \"#utility.yul\":11353:11356   */\n      dup4\n        /* \"#utility.yul\":11347:11351   */\n      dup4\n        /* \"#utility.yul\":11328:11357   */\n      tag_103\n      jump\t// in\n    tag_237:\n        /* \"#utility.yul\":11320:11357   */\n      swap2\n      pop\n        /* \"#utility.yul\":11390:11393   */\n      dup3\n        /* \"#utility.yul\":11387:11388   */\n      0x02\n        /* \"#utility.yul\":11383:11394   */\n      mul\n        /* \"#utility.yul\":11377:11381   */\n      dup3\n        /* \"#utility.yul\":11374:11395   */\n      or\n        /* \"#utility.yul\":11366:11395   */\n      swap1\n      pop\n        /* \"#utility.yul\":11106:11401   */\n      swap3\n      swap2\n      pop\n      pop\n      jump\t// out\n        /* \"#utility.yul\":11406:12801   */\n    tag_57:\n        /* \"#utility.yul\":11523:11560   */\n      tag_239\n        /* \"#utility.yul\":11556:11559   */\n      dup3\n        /* \"#utility.yul\":11523:11560   */\n      tag_70\n      jump\t// in\n    tag_239:\n        /* \"#utility.yul\":11625:11643   */\n      0xffffffffffffffff\n        /* \"#utility.yul\":11617:11623   */\n      dup2\n        /* \"#utility.yul\":11614:11644   */\n      gt\n        /* \"#utility.yul\":11611:11667   */\n      iszero\n      tag_240\n      jumpi\n        /* \"#utility.yul\":11647:11665   */\n      tag_241\n      tag_82\n      jump\t// in\n    tag_241:\n        /* \"#utility.yul\":11611:11667   */\n    tag_240:\n        /* \"#utility.yul\":11691:11729   */\n      tag_242\n        /* \"#utility.yul\":11723:11727   */\n      dup3\n        /* \"#utility.yul\":11717:11728   */\n      sload\n        /* \"#utility.yul\":11691:11729   */\n      tag_34\n      jump\t// in\n    tag_242:\n        /* \"#utility.yul\":11776:11843   */\n      tag_243\n        /* \"#utility.yul\":11836:11842   */\n      dup3\n        /* \"#utility.yul\":11828:11834   */\n      dup3\n        /* \"#utility.yul\":11822:11826   */\n      dup6\n        /* \"#utility.yul\":11776:11843   */\n      tag_101\n      jump\t// in\n    tag_243:\n        /* \"#utility.yul\":11870:11871   */\n      0x00\n        /* \"#utility.yul\":11894:11898   */\n      0x20\n        /* \"#utility.yul\":11881:11898   */\n      swap1\n      pop\n        /* \"#utility.yul\":11926:11928   */\n      0x1f\n        /* \"#utility.yul\":11918:11924   */\n      dup4\n        /* \"#utility.yul\":11915:11929   */\n      gt\n        /* \"#utility.yul\":11943:11944   */\n      0x01\n        /* \"#utility.yul\":11938:12556   */\n      dup2\n      eq\n      tag_245\n      jumpi\n        /* \"#utility.yul\":12600:12601   */\n      0x00\n        /* \"#utility.yul\":12617:12623   */\n      dup5\n        /* \"#utility.yul\":12614:12691   */\n      iszero\n      tag_246\n      jumpi\n        /* \"#utility.yul\":12666:12675   */\n      dup3\n        /* \"#utility.yul\":12661:12664   */\n      dup8\n        /* \"#utility.yul\":12657:12676   */\n      add\n        /* \"#utility.yul\":12651:12677   */\n      mload\n        /* \"#utility.yul\":12642:12677   */\n      swap1\n      pop\n        /* \"#utility.yul\":12614:12691   */\n    tag_246:\n        /* \"#utility.yul\":12717:12784   */\n      tag_247\n        /* \"#utility.yul\":12777:12783   */\n      dup6\n        /* \"#utility.yul\":12770:12775   */\n      dup3\n        /* \"#utility.yul\":12717:12784   */\n      tag_104\n      jump\t// in\n    tag_247:\n        /* \"#utility.yul\":12711:12715   */\n      dup7\n        /* \"#utility.yul\":12704:12785   */\n      sstore\n        /* \"#utility.yul\":12573:12795   */\n      pop\n        /* \"#utility.yul\":11908:12795   */\n      jump(tag_244)\n        /* \"#utility.yul\":11938:12556   */\n    tag_245:\n        /* \"#utility.yul\":11990:11994   */\n      0x1f\n        /* \"#utility.yul\":11986:11995   */\n      not\n        /* \"#utility.yul\":11978:11984   */\n      dup5\n        /* \"#utility.yul\":11974:11996   */\n      and\n        /* \"#utility.yul\":12024:12061   */\n      tag_248\n        /* \"#utility.yul\":12056:12060   */\n      dup7\n        /* \"#utility.yul\":12024:12061   */\n      tag_90\n      jump\t// in\n    tag_248:\n        /* \"#utility.yul\":12083:12084   */\n      0x00\n        /* \"#utility.yul\":12097:12305   */\n    tag_249:\n        /* \"#utility.yul\":12111:12118   */\n      dup3\n        /* \"#utility.yul\":12108:12109   */\n      dup2\n        /* \"#utility.yul\":12105:12119   */\n      lt\n        /* \"#utility.yul\":12097:12305   */\n      iszero\n      tag_251\n      jumpi\n        /* \"#utility.yul\":12190:12199   */\n      dup5\n        /* \"#utility.yul\":12185:12188   */\n      dup10\n        /* \"#utility.yul\":12181:12200   */\n      add\n        /* \"#utility.yul\":12175:12201   */\n      mload\n        /* \"#utility.yul\":12167:12173   */\n      dup3\n        /* \"#utility.yul\":12160:12202   */\n      sstore\n        /* \"#utility.yul\":12241:12242   */\n      0x01\n        /* \"#utility.yul\":12233:12239   */\n      dup3\n        /* \"#utility.yul\":12229:12243   */\n      add\n        /* \"#utility.yul\":12219:12243   */\n      swap2\n      pop\n        /* \"#utility.yul\":12288:12290   */\n      0x20\n        /* \"#utility.yul\":12277:12286   */\n      dup6\n        /* \"#utility.yul\":12273:12291   */\n      add\n        /* \"#utility.yul\":12260:12291   */\n      swap5\n      pop\n        /* \"#utility.yul\":12134:12138   */\n      0x20\n        /* \"#utility.yul\":12131:12132   */\n      dup2\n        /* \"#utility.yul\":12127:12139   */\n      add\n        /* \"#utility.yul\":12122:12139   */\n      swap1\n      pop\n        /* \"#utility.yul\":12097:12305   */\n      jump(tag_249)\n    tag_251:\n        /* \"#utility.yul\":12333:12339   */\n      dup7\n        /* \"#utility.yul\":12324:12331   */\n      dup4\n        /* \"#utility.yul\":12321:12340   */\n      lt\n        /* \"#utility.yul\":12318:12497   */\n      iszero\n      tag_252\n      jumpi\n        /* \"#utility.yul\":12391:12400   */\n      dup5\n        /* \"#utility.yul\":12386:12389   */\n      dup10\n        /* \"#utility.yul\":12382:12401   */\n      add\n        /* \"#utility.yul\":12376:12402   */\n      mload\n        /* \"#utility.yul\":12434:12482   */\n      tag_253\n        /* \"#utility.yul\":12476:12480   */\n      0x1f\n        /* \"#utility.yul\":12468:12474   */\n      dup10\n        /* \"#utility.yul\":12464:12481   */\n      and\n        /* \"#utility.yul\":12453:12462   */\n      dup3\n        /* \"#utility.yul\":12434:12482   */\n      tag_103\n      jump\t// in\n    tag_253:\n        /* \"#utility.yul\":12426:12432   */\n      dup4\n        /* \"#utility.yul\":12419:12483   */\n      sstore\n        /* \"#utility.yul\":12341:12497   */\n      pop\n        /* \"#utility.yul\":12318:12497   */\n    tag_252:\n        /* \"#utility.yul\":12543:12544   */\n      0x01\n        /* \"#utility.yul\":12539:12540   */\n      0x02\n        /* \"#utility.yul\":12531:12537   */\n      dup9\n        /* \"#utility.yul\":12527:12541   */\n      mul\n        /* \"#utility.yul\":12523:12545   */\n      add\n        /* \"#utility.yul\":12517:12521   */\n      dup9\n        /* \"#utility.yul\":12510:12546   */\n      sstore\n        /* \"#utility.yul\":11945:12556   */\n      pop\n      pop\n      pop\n        /* \"#utility.yul\":11908:12795   */\n    tag_244:\n      pop\n        /* \"#utility.yul\":11498:12801   */\n      pop\n      pop\n      pop\n        /* \"#utility.yul\":11406:12801   */\n      pop\n      pop\n      jump\t// out\n\n    auxdata: 0xa264697066735822122061ce7ac89d80945c71d248bcae8074400e3f9b741cbf29fff066bdf69d26264a64736f6c63430008140033\n}\n",
				"bytecode": {
					"linkReferences": {},
					"object": "608060405234801561000f575f80fd5b50335f806101000a81548173ffffffffffffffffffffffffffffffffffffffff021916908373ffffffffffffffffffffffffffffffffffffffff160217905550610c118061005c5f395ff3fe608060405234801561000f575f80fd5b5060043610610055575f3560e01c806327aed72e14610059578063c99402081461008c578063d0ebdbe7146100bc578063de718397146100d8578063ee1babb5146100f4575b5f80fd5b610073600480360381019061006e919061053b565b610110565b60405161008394939291906105ff565b60405180910390f35b6100a660048036038101906100a1919061053b565b6102dd565b6040516100b39190610696565b60405180910390f35b6100d660048036038101906100d191906106d9565b61030d565b005b6100f260048036038101906100ed9190610830565b6103a6565b005b61010e600480360381019061010991906108d4565b61049b565b005b6002818154811061011f575f80fd5b905f5260205f2090600402015f91509050805f0154908060010180546101449061093f565b80601f01602080910402602001604051908101604052809291908181526020018280546101709061093f565b80156101bb5780601f10610192576101008083540402835291602001916101bb565b820191905f5260205f20905b81548152906001019060200180831161019e57829003601f168201915b5050505050908060020180546101d09061093f565b80601f01602080910402602001604051908101604052809291908181526020018280546101fc9061093f565b80156102475780601f1061021e57610100808354040283529160200191610247565b820191905f5260205f20905b81548152906001019060200180831161022a57829003601f168201915b50505050509080600301805461025c9061093f565b80601f01602080910402602001604051908101604052809291908181526020018280546102889061093f565b80156102d35780601f106102aa576101008083540402835291602001916102d3565b820191905f5260205f20905b8154815290600101906020018083116102b657829003601f168201915b5050505050905084565b6003602052805f5260405f205f915054906101000a900473ffffffffffffffffffffffffffffffffffffffff1681565b5f8054906101000a900473ffffffffffffffffffffffffffffffffffffffff1673ffffffffffffffffffffffffffffffffffffffff163373ffffffffffffffffffffffffffffffffffffffff1614610363575f80fd5b8060015f6101000a81548173ffffffffffffffffffffffffffffffffffffffff021916908373ffffffffffffffffffffffffffffffffffffffff16021790555050565b5f8054906101000a900473ffffffffffffffffffffffffffffffffffffffff1673ffffffffffffffffffffffffffffffffffffffff163373ffffffffffffffffffffffffffffffffffffffff16146103fc575f80fd5b60026040518060800160405280600280549050815260200185815260200184815260200183815250908060018154018082558091505060019003905f5260205f2090600402015f909190919091505f820151815f015560208201518160010190816104679190610b0c565b50604082015181600201908161047d9190610b0c565b5060608201518160030190816104939190610b0c565b505050505050565b60015f9054906101000a900473ffffffffffffffffffffffffffffffffffffffff1673ffffffffffffffffffffffffffffffffffffffff163373ffffffffffffffffffffffffffffffffffffffff16146104f3575f80fd5b5050565b5f604051905090565b5f80fd5b5f80fd5b5f819050919050565b61051a81610508565b8114610524575f80fd5b50565b5f8135905061053581610511565b92915050565b5f602082840312156105505761054f610500565b5b5f61055d84828501610527565b91505092915050565b61056f81610508565b82525050565b5f81519050919050565b5f82825260208201905092915050565b5f5b838110156105ac578082015181840152602081019050610591565b5f8484015250505050565b5f601f19601f8301169050919050565b5f6105d182610575565b6105db818561057f565b93506105eb81856020860161058f565b6105f4816105b7565b840191505092915050565b5f6080820190506106125f830187610566565b818103602083015261062481866105c7565b9050818103604083015261063881856105c7565b9050818103606083015261064c81846105c7565b905095945050505050565b5f73ffffffffffffffffffffffffffffffffffffffff82169050919050565b5f61068082610657565b9050919050565b61069081610676565b82525050565b5f6020820190506106a95f830184610687565b92915050565b6106b881610676565b81146106c2575f80fd5b50565b5f813590506106d3816106af565b92915050565b5f602082840312156106ee576106ed610500565b5b5f6106fb848285016106c5565b91505092915050565b5f80fd5b5f80fd5b7f4e487b71000000000000000000000000000000000000000000000000000000005f52604160045260245ffd5b610742826105b7565b810181811067ffffffffffffffff821117156107615761076061070c565b5b80604052505050565b5f6107736104f7565b905061077f8282610739565b919050565b5f67ffffffffffffffff82111561079e5761079d61070c565b5b6107a7826105b7565b9050602081019050919050565b828183375f83830152505050565b5f6107d46107cf84610784565b61076a565b9050828152602081018484840111156107f0576107ef610708565b5b6107fb8482856107b4565b509392505050565b5f82601f83011261081757610816610704565b5b81356108278482602086016107c2565b91505092915050565b5f805f6060848603121561084757610846610500565b5b5f84013567ffffffffffffffff81111561086457610863610504565b5b61087086828701610803565b935050602084013567ffffffffffffffff81111561089157610890610504565b5b61089d86828701610803565b925050604084013567ffffffffffffffff8111156108be576108bd610504565b5b6108ca86828701610803565b9150509250925092565b5f80604083850312156108ea576108e9610500565b5b5f6108f785828601610527565b9250506020610908858286016106c5565b9150509250929050565b7f4e487b71000000000000000000000000000000000000000000000000000000005f52602260045260245ffd5b5f600282049050600182168061095657607f821691505b60208210810361096957610968610912565b5b50919050565b5f819050815f5260205f209050919050565b5f6020601f8301049050919050565b5f82821b905092915050565b5f600883026109cb7fffffffffffffffffffffffffffffffffffffffffffffffffffffffffffffffff82610990565b6109d58683610990565b95508019841693508086168417925050509392505050565b5f819050919050565b5f610a10610a0b610a0684610508565b6109ed565b610508565b9050919050565b5f819050919050565b610a29836109f6565b610a3d610a3582610a17565b84845461099c565b825550505050565b5f90565b610a51610a45565b610a5c818484610a20565b505050565b5b81811015610a7f57610a745f82610a49565b600181019050610a62565b5050565b601f821115610ac457610a958161096f565b610a9e84610981565b81016020851015610aad578190505b610ac1610ab985610981565b830182610a61565b50505b505050565b5f82821c905092915050565b5f610ae45f1984600802610ac9565b1980831691505092915050565b5f610afc8383610ad5565b9150826002028217905092915050565b610b1582610575565b67ffffffffffffffff811115610b2e57610b2d61070c565b5b610b38825461093f565b610b43828285610a83565b5f60209050601f831160018114610b74575f8415610b62578287015190505b610b6c8582610af1565b865550610bd3565b601f198416610b828661096f565b5f5b82811015610ba957848901518255600182019150602085019450602081019050610b84565b86831015610bc65784890151610bc2601f891682610ad5565b8355505b6001600288020188555050505b50505050505056fea264697066735822122061ce7ac89d80945c71d248bcae8074400e3f9b741cbf29fff066bdf69d26264a64736f6c63430008140033",
					"opcodes": "PUSH1 0x80 PUSH1 0x40 MSTORE CALLVALUE DUP1 ISZERO PUSH2 0xF JUMPI PUSH0 DUP1 REVERT JUMPDEST POP CALLER PUSH0 DUP1 PUSH2 0x100 EXP DUP2 SLOAD DUP2 PUSH20 0xFFFFFFFFFFFFFFFFFFFFFFFFFFFFFFFFFFFFFFFF MUL NOT AND SWAP1 DUP4 PUSH20 0xFFFFFFFFFFFFFFFFFFFFFFFFFFFFFFFFFFFFFFFF AND MUL OR SWAP1 SSTORE POP PUSH2 0xC11 DUP1 PUSH2 0x5C PUSH0 CODECOPY PUSH0 RETURN INVALID PUSH1 0x80 PUSH1 0x40 MSTORE CALLVALUE DUP1 ISZERO PUSH2 0xF JUMPI PUSH0 DUP1 REVERT JUMPDEST POP PUSH1 0x4 CALLDATASIZE LT PUSH2 0x55 JUMPI PUSH0 CALLDATALOAD PUSH1 0xE0 SHR DUP1 PUSH4 0x27AED72E EQ PUSH2 0x59 JUMPI DUP1 PUSH4 0xC9940208 EQ PUSH2 0x8C JUMPI DUP1 PUSH4 0xD0EBDBE7 EQ PUSH2 0xBC JUMPI DUP1 PUSH4 0xDE718397 EQ PUSH2 0xD8 JUMPI DUP1 PUSH4 0xEE1BABB5 EQ PUSH2 0xF4 JUMPI JUMPDEST PUSH0 DUP1 REVERT JUMPDEST PUSH2 0x73 PUSH1 0x4 DUP1 CALLDATASIZE SUB DUP2 ADD SWAP1 PUSH2 0x6E SWAP2 SWAP1 PUSH2 0x53B JUMP JUMPDEST PUSH2 0x110 JUMP JUMPDEST PUSH1 0x40 MLOAD PUSH2 0x83 SWAP5 SWAP4 SWAP3 SWAP2 SWAP1 PUSH2 0x5FF JUMP JUMPDEST PUSH1 0x40 MLOAD DUP1 SWAP2 SUB SWAP1 RETURN JUMPDEST PUSH2 0xA6 PUSH1 0x4 DUP1 CALLDATASIZE SUB DUP2 ADD SWAP1 PUSH2 0xA1 SWAP2 SWAP1 PUSH2 0x53B JUMP JUMPDEST PUSH2 0x2DD JUMP JUMPDEST PUSH1 0x40 MLOAD PUSH2 0xB3 SWAP2 SWAP1 PUSH2 0x696 JUMP JUMPDEST PUSH1 0x40 MLOAD DUP1 SWAP2 SUB SWAP1 RETURN JUMPDEST PUSH2 0xD6 PUSH1 0x4 DUP1 CALLDATASIZE SUB DUP2 ADD SWAP1 PUSH2 0xD1 SWAP2 SWAP1 PUSH2 0x6D9 JUMP JUMPDEST PUSH2 0x30D JUMP JUMPDEST STOP JUMPDEST PUSH2 0xF2 PUSH1 0x4 DUP1 CALLDATASIZE SUB DUP2 ADD SWAP1 PUSH2 0xED SWAP2 SWAP1 PUSH2 0x830 JUMP JUMPDEST PUSH2 0x3A6 JUMP JUMPDEST STOP JUMPDEST PUSH2 0x10E PUSH1 0x4 DUP1 CALLDATASIZE SUB DUP2 ADD SWAP1 PUSH2 0x109 SWAP2 SWAP1 PUSH2 0x8D4 JUMP JUMPDEST PUSH2 0x49B JUMP JUMPDEST STOP JUMPDEST PUSH1 0x2 DUP2 DUP2 SLOAD DUP2 LT PUSH2 0x11F JUMPI PUSH0 DUP1 REVERT JUMPDEST SWAP1 PUSH0 MSTORE PUSH1 0x20 PUSH0 KECCAK256 SWAP1 PUSH1 0x4 MUL ADD PUSH0 SWAP2 POP SWAP1 POP DUP1 PUSH0 ADD SLOAD SWAP1 DUP1 PUSH1 0x1 ADD DUP1 SLOAD PUSH2 0x144 SWAP1 PUSH2 0x93F JUMP JUMPDEST DUP1 PUSH1 0x1F ADD PUSH1 0x20 DUP1 SWAP2 DIV MUL PUSH1 0x20 ADD PUSH1 0x40 MLOAD SWAP1 DUP2 ADD PUSH1 0x40 MSTORE DUP1 SWAP3 SWAP2 SWAP1 DUP2 DUP2 MSTORE PUSH1 0x20 ADD DUP3 DUP1 SLOAD PUSH2 0x170 SWAP1 PUSH2 0x93F JUMP JUMPDEST DUP1 ISZERO PUSH2 0x1BB JUMPI DUP1 PUSH1 0x1F LT PUSH2 0x192 JUMPI PUSH2 0x100 DUP1 DUP4 SLOAD DIV MUL DUP4 MSTORE SWAP2 PUSH1 0x20 ADD SWAP2 PUSH2 0x1BB JUMP JUMPDEST DUP3 ADD SWAP2 SWAP1 PUSH0 MSTORE PUSH1 0x20 PUSH0 KECCAK256 SWAP1 JUMPDEST DUP2 SLOAD DUP2 MSTORE SWAP1 PUSH1 0x1 ADD SWAP1 PUSH1 0x20 ADD DUP1 DUP4 GT PUSH2 0x19E JUMPI DUP3 SWAP1 SUB PUSH1 0x1F AND DUP3 ADD SWAP2 JUMPDEST POP POP POP POP POP SWAP1 DUP1 PUSH1 0x2 ADD DUP1 SLOAD PUSH2 0x1D0 SWAP1 PUSH2 0x93F JUMP JUMPDEST DUP1 PUSH1 0x1F ADD PUSH1 0x20 DUP1 SWAP2 DIV MUL PUSH1 0x20 ADD PUSH1 0x40 MLOAD SWAP1 DUP2 ADD PUSH1 0x40 MSTORE DUP1 SWAP3 SWAP2 SWAP1 DUP2 DUP2 MSTORE PUSH1 0x20 ADD DUP3 DUP1 SLOAD PUSH2 0x1FC SWAP1 PUSH2 0x93F JUMP JUMPDEST DUP1 ISZERO PUSH2 0x247 JUMPI DUP1 PUSH1 0x1F LT PUSH2 0x21E JUMPI PUSH2 0x100 DUP1 DUP4 SLOAD DIV MUL DUP4 MSTORE SWAP2 PUSH1 0x20 ADD SWAP2 PUSH2 0x247 JUMP JUMPDEST DUP3 ADD SWAP2 SWAP1 PUSH0 MSTORE PUSH1 0x20 PUSH0 KECCAK256 SWAP1 JUMPDEST DUP2 SLOAD DUP2 MSTORE SWAP1 PUSH1 0x1 ADD SWAP1 PUSH1 0x20 ADD DUP1 DUP4 GT PUSH2 0x22A JUMPI DUP3 SWAP1 SUB PUSH1 0x1F AND DUP3 ADD SWAP2 JUMPDEST POP POP POP POP POP SWAP1 DUP1 PUSH1 0x3 ADD DUP1 SLOAD PUSH2 0x25C SWAP1 PUSH2 0x93F JUMP JUMPDEST DUP1 PUSH1 0x1F ADD PUSH1 0x20 DUP1 SWAP2 DIV MUL PUSH1 0x20 ADD PUSH1 0x40 MLOAD SWAP1 DUP2 ADD PUSH1 0x40 MSTORE DUP1 SWAP3 SWAP2 SWAP1 DUP2 DUP2 MSTORE PUSH1 0x20 ADD DUP3 DUP1 SLOAD PUSH2 0x288 SWAP1 PUSH2 0x93F JUMP JUMPDEST DUP1 ISZERO PUSH2 0x2D3 JUMPI DUP1 PUSH1 0x1F LT PUSH2 0x2AA JUMPI PUSH2 0x100 DUP1 DUP4 SLOAD DIV MUL DUP4 MSTORE SWAP2 PUSH1 0x20 ADD SWAP2 PUSH2 0x2D3 JUMP JUMPDEST DUP3 ADD SWAP2 SWAP1 PUSH0 MSTORE PUSH1 0x20 PUSH0 KECCAK256 SWAP1 JUMPDEST DUP2 SLOAD DUP2 MSTORE SWAP1 PUSH1 0x1 ADD SWAP1 PUSH1 0x20 ADD DUP1 DUP4 GT PUSH2 0x2B6 JUMPI DUP3 SWAP1 SUB PUSH1 0x1F AND DUP3 ADD SWAP2 JUMPDEST POP POP POP POP POP SWAP1 POP DUP5 JUMP JUMPDEST PUSH1 0x3 PUSH1 0x20 MSTORE DUP1 PUSH0 MSTORE PUSH1 0x40 PUSH0 KECCAK256 PUSH0 SWAP2 POP SLOAD SWAP1 PUSH2 0x100 EXP SWAP1 DIV PUSH20 0xFFFFFFFFFFFFFFFFFFFFFFFFFFFFFFFFFFFFFFFF AND DUP2 JUMP JUMPDEST PUSH0 DUP1 SLOAD SWAP1 PUSH2 0x100 EXP SWAP1 DIV PUSH20 0xFFFFFFFFFFFFFFFFFFFFFFFFFFFFFFFFFFFFFFFF AND PUSH20 0xFFFFFFFFFFFFFFFFFFFFFFFFFFFFFFFFFFFFFFFF AND CALLER PUSH20 0xFFFFFFFFFFFFFFFFFFFFFFFFFFFFFFFFFFFFFFFF AND EQ PUSH2 0x363 JUMPI PUSH0 DUP1 REVERT JUMPDEST DUP1 PUSH1 0x1 PUSH0 PUSH2 0x100 EXP DUP2 SLOAD DUP2 PUSH20 0xFFFFFFFFFFFFFFFFFFFFFFFFFFFFFFFFFFFFFFFF MUL NOT AND SWAP1 DUP4 PUSH20 0xFFFFFFFFFFFFFFFFFFFFFFFFFFFFFFFFFFFFFFFF AND MUL OR SWAP1 SSTORE POP POP JUMP JUMPDEST PUSH0 DUP1 SLOAD SWAP1 PUSH2 0x100 EXP SWAP1 DIV PUSH20 0xFFFFFFFFFFFFFFFFFFFFFFFFFFFFFFFFFFFFFFFF AND PUSH20 0xFFFFFFFFFFFFFFFFFFFFFFFFFFFFFFFFFFFFFFFF AND CALLER PUSH20 0xFFFFFFFFFFFFFFFFFFFFFFFFFFFFFFFFFFFFFFFF AND EQ PUSH2 0x3FC JUMPI PUSH0 DUP1 REVERT JUMPDEST PUSH1 0x2 PUSH1 0x40 MLOAD DUP1 PUSH1 0x80 ADD PUSH1 0x40 MSTORE DUP1 PUSH1 0x2 DUP1 SLOAD SWAP1 POP DUP2 MSTORE PUSH1 0x20 ADD DUP6 DUP2 MSTORE PUSH1 0x20 ADD DUP5 DUP2 MSTORE PUSH1 0x20 ADD DUP4 DUP2 MSTORE POP SWAP1 DUP1 PUSH1 0x1 DUP2 SLOAD ADD DUP1 DUP3 SSTORE DUP1 SWAP2 POP POP PUSH1 0x1 SWAP1 SUB SWAP1 PUSH0 MSTORE PUSH1 0x20 PUSH0 KECCAK256 SWAP1 PUSH1 0x4 MUL ADD PUSH0 SWAP1 SWAP2 SWAP1 SWAP2 SWAP1 SWAP2 POP PUSH0 DUP3 ADD MLOAD DUP2 PUSH0 ADD SSTORE PUSH1 0x20 DUP3 ADD MLOAD DUP2 PUSH1 0x1 ADD SWAP1 DUP2 PUSH2 0x467 SWAP2 SWAP1 PUSH2 0xB0C JUMP JUMPDEST POP PUSH1 0x40 DUP3 ADD MLOAD DUP2 PUSH1 0x2 ADD SWAP1 DUP2 PUSH2 0x47D SWAP2 SWAP1 PUSH2 0xB0C JUMP JUMPDEST POP PUSH1 0x60 DUP3 ADD MLOAD DUP2 PUSH1 0x3 ADD SWAP1 DUP2 PUSH2 0x493 SWAP2 SWAP1 PUSH2 0xB0C JUMP JUMPDEST POP POP POP POP POP POP JUMP JUMPDEST PUSH1 0x1 PUSH0 SWAP1 SLOAD SWAP1 PUSH2 0x100 EXP SWAP1 DIV PUSH20 0xFFFFFFFFFFFFFFFFFFFFFFFFFFFFFFFFFFFFFFFF AND PUSH20 0xFFFFFFFFFFFFFFFFFFFFFFFFFFFFFFFFFFFFFFFF AND CALLER PUSH20 0xFFFFFFFFFFFFFFFFFFFFFFFFFFFFFFFFFFFFFFFF AND EQ PUSH2 0x4F3 JUMPI PUSH0 DUP1 REVERT JUMPDEST POP POP JUMP JUMPDEST PUSH0 PUSH1 0x40 MLOAD SWAP1 POP SWAP1 JUMP JUMPDEST PUSH0 DUP1 REVERT JUMPDEST PUSH0 DUP1 REVERT JUMPDEST PUSH0 DUP2 SWAP1 POP SWAP2 SWAP1 POP JUMP JUMPDEST PUSH2 0x51A DUP2 PUSH2 0x508 JUMP JUMPDEST DUP2 EQ PUSH2 0x524 JUMPI PUSH0 DUP1 REVERT JUMPDEST POP JUMP JUMPDEST PUSH0 DUP2 CALLDATALOAD SWAP1 POP PUSH2 0x535 DUP2 PUSH2 0x511 JUMP JUMPDEST SWAP3 SWAP2 POP POP JUMP JUMPDEST PUSH0 PUSH1 0x20 DUP3 DUP5 SUB SLT ISZERO PUSH2 0x550 JUMPI PUSH2 0x54F PUSH2 0x500 JUMP JUMPDEST JUMPDEST PUSH0 PUSH2 0x55D DUP5 DUP3 DUP6 ADD PUSH2 0x527 JUMP JUMPDEST SWAP2 POP POP SWAP3 SWAP2 POP POP JUMP JUMPDEST PUSH2 0x56F DUP2 PUSH2 0x508 JUMP JUMPDEST DUP3 MSTORE POP POP JUMP JUMPDEST PUSH0 DUP2 MLOAD SWAP1 POP SWAP2 SWAP1 POP JUMP JUMPDEST PUSH0 DUP3 DUP3 MSTORE PUSH1 0x20 DUP3 ADD SWAP1 POP SWAP3 SWAP2 POP POP JUMP JUMPDEST PUSH0 JUMPDEST DUP4 DUP2 LT ISZERO PUSH2 0x5AC JUMPI DUP1 DUP3 ADD MLOAD DUP2 DUP5 ADD MSTORE PUSH1 0x20 DUP2 ADD SWAP1 POP PUSH2 0x591 JUMP JUMPDEST PUSH0 DUP5 DUP5 ADD MSTORE POP POP POP POP JUMP JUMPDEST PUSH0 PUSH1 0x1F NOT PUSH1 0x1F DUP4 ADD AND SWAP1 POP SWAP2 SWAP1 POP JUMP JUMPDEST PUSH0 PUSH2 0x5D1 DUP3 PUSH2 0x575 JUMP JUMPDEST PUSH2 0x5DB DUP2 DUP6 PUSH2 0x57F JUMP JUMPDEST SWAP4 POP PUSH2 0x5EB DUP2 DUP6 PUSH1 0x20 DUP7 ADD PUSH2 0x58F JUMP JUMPDEST PUSH2 0x5F4 DUP2 PUSH2 0x5B7 JUMP JUMPDEST DUP5 ADD SWAP2 POP POP SWAP3 SWAP2 POP POP JUMP JUMPDEST PUSH0 PUSH1 0x80 DUP3 ADD SWAP1 POP PUSH2 0x612 PUSH0 DUP4 ADD DUP8 PUSH2 0x566 JUMP JUMPDEST DUP2 DUP2 SUB PUSH1 0x20 DUP4 ADD MSTORE PUSH2 0x624 DUP2 DUP7 PUSH2 0x5C7 JUMP JUMPDEST SWAP1 POP DUP2 DUP2 SUB PUSH1 0x40 DUP4 ADD MSTORE PUSH2 0x638 DUP2 DUP6 PUSH2 0x5C7 JUMP JUMPDEST SWAP1 POP DUP2 DUP2 SUB PUSH1 0x60 DUP4 ADD MSTORE PUSH2 0x64C DUP2 DUP5 PUSH2 0x5C7 JUMP JUMPDEST SWAP1 POP SWAP6 SWAP5 POP POP POP POP POP JUMP JUMPDEST PUSH0 PUSH20 0xFFFFFFFFFFFFFFFFFFFFFFFFFFFFFFFFFFFFFFFF DUP3 AND SWAP1 POP SWAP2 SWAP1 POP JUMP JUMPDEST PUSH0 PUSH2 0x680 DUP3 PUSH2 0x657 JUMP JUMPDEST SWAP1 POP SWAP2 SWAP1 POP JUMP JUMPDEST PUSH2 0x690 DUP2 PUSH2 0x676 JUMP JUMPDEST DUP3 MSTORE POP POP JUMP JUMPDEST PUSH0 PUSH1 0x20 DUP3 ADD SWAP1 POP PUSH2 0x6A9 PUSH0 DUP4 ADD DUP5 PUSH2 0x687 JUMP JUMPDEST SWAP3 SWAP2 POP POP JUMP JUMPDEST PUSH2 0x6B8 DUP2 PUSH2 0x676 JUMP JUMPDEST DUP2 EQ PUSH2 0x6C2 JUMPI PUSH0 DUP1 REVERT JUMPDEST POP JUMP JUMPDEST PUSH0 DUP2 CALLDATALOAD SWAP1 POP PUSH2 0x6D3 DUP2 PUSH2 0x6AF JUMP JUMPDEST SWAP3 SWAP2 POP POP JUMP JUMPDEST PUSH0 PUSH1 0x20 DUP3 DUP5 SUB SLT ISZERO PUSH2 0x6EE JUMPI PUSH2 0x6ED PUSH2 0x500 JUMP JUMPDEST JUMPDEST PUSH0 PUSH2 0x6FB DUP5 DUP3 DUP6 ADD PUSH2 0x6C5 JUMP JUMPDEST SWAP2 POP POP SWAP3 SWAP2 POP POP JUMP JUMPDEST PUSH0 DUP1 REVERT JUMPDEST PUSH0 DUP1 REVERT JUMPDEST PUSH32 0x4E487B7100000000000000000000000000000000000000000000000000000000 PUSH0 MSTORE PUSH1 0x41 PUSH1 0x4 MSTORE PUSH1 0x24 PUSH0 REVERT JUMPDEST PUSH2 0x742 DUP3 PUSH2 0x5B7 JUMP JUMPDEST DUP2 ADD DUP2 DUP2 LT PUSH8 0xFFFFFFFFFFFFFFFF DUP3 GT OR ISZERO PUSH2 0x761 JUMPI PUSH2 0x760 PUSH2 0x70C JUMP JUMPDEST JUMPDEST DUP1 PUSH1 0x40 MSTORE POP POP POP JUMP JUMPDEST PUSH0 PUSH2 0x773 PUSH2 0x4F7 JUMP JUMPDEST SWAP1 POP PUSH2 0x77F DUP3 DUP3 PUSH2 0x739 JUMP JUMPDEST SWAP2 SWAP1 POP JUMP JUMPDEST PUSH0 PUSH8 0xFFFFFFFFFFFFFFFF DUP3 GT ISZERO PUSH2 0x79E JUMPI PUSH2 0x79D PUSH2 0x70C JUMP JUMPDEST JUMPDEST PUSH2 0x7A7 DUP3 PUSH2 0x5B7 JUMP JUMPDEST SWAP1 POP PUSH1 0x20 DUP2 ADD SWAP1 POP SWAP2 SWAP1 POP JUMP JUMPDEST DUP3 DUP2 DUP4 CALLDATACOPY PUSH0 DUP4 DUP4 ADD MSTORE POP POP POP JUMP JUMPDEST PUSH0 PUSH2 0x7D4 PUSH2 0x7CF DUP5 PUSH2 0x784 JUMP JUMPDEST PUSH2 0x76A JUMP JUMPDEST SWAP1 POP DUP3 DUP2 MSTORE PUSH1 0x20 DUP2 ADD DUP5 DUP5 DUP5 ADD GT ISZERO PUSH2 0x7F0 JUMPI PUSH2 0x7EF PUSH2 0x708 JUMP JUMPDEST JUMPDEST PUSH2 0x7FB DUP5 DUP3 DUP6 PUSH2 0x7B4 JUMP JUMPDEST POP SWAP4 SWAP3 POP POP POP JUMP JUMPDEST PUSH0 DUP3 PUSH1 0x1F DUP4 ADD SLT PUSH2 0x817 JUMPI PUSH2 0x816 PUSH2 0x704 JUMP JUMPDEST JUMPDEST DUP2 CALLDATALOAD PUSH2 0x827 DUP5 DUP3 PUSH1 0x20 DUP7 ADD PUSH2 0x7C2 JUMP JUMPDEST SWAP2 POP POP SWAP3 SWAP2 POP POP JUMP JUMPDEST PUSH0 DUP1 PUSH0 PUSH1 0x60 DUP5 DUP7 SUB SLT ISZERO PUSH2 0x847 JUMPI PUSH2 0x846 PUSH2 0x500 JUMP JUMPDEST JUMPDEST PUSH0 DUP5 ADD CALLDATALOAD PUSH8 0xFFFFFFFFFFFFFFFF DUP2 GT ISZERO PUSH2 0x864 JUMPI PUSH2 0x863 PUSH2 0x504 JUMP JUMPDEST JUMPDEST PUSH2 0x870 DUP7 DUP3 DUP8 ADD PUSH2 0x803 JUMP JUMPDEST SWAP4 POP POP PUSH1 0x20 DUP5 ADD CALLDATALOAD PUSH8 0xFFFFFFFFFFFFFFFF DUP2 GT ISZERO PUSH2 0x891 JUMPI PUSH2 0x890 PUSH2 0x504 JUMP JUMPDEST JUMPDEST PUSH2 0x89D DUP7 DUP3 DUP8 ADD PUSH2 0x803 JUMP JUMPDEST SWAP3 POP POP PUSH1 0x40 DUP5 ADD CALLDATALOAD PUSH8 0xFFFFFFFFFFFFFFFF DUP2 GT ISZERO PUSH2 0x8BE JUMPI PUSH2 0x8BD PUSH2 0x504 JUMP JUMPDEST JUMPDEST PUSH2 0x8CA DUP7 DUP3 DUP8 ADD PUSH2 0x803 JUMP JUMPDEST SWAP2 POP POP SWAP3 POP SWAP3 POP SWAP3 JUMP JUMPDEST PUSH0 DUP1 PUSH1 0x40 DUP4 DUP6 SUB SLT ISZERO PUSH2 0x8EA JUMPI PUSH2 0x8E9 PUSH2 0x500 JUMP JUMPDEST JUMPDEST PUSH0 PUSH2 0x8F7 DUP6 DUP3 DUP7 ADD PUSH2 0x527 JUMP JUMPDEST SWAP3 POP POP PUSH1 0x20 PUSH2 0x908 DUP6 DUP3 DUP7 ADD PUSH2 0x6C5 JUMP JUMPDEST SWAP2 POP POP SWAP3 POP SWAP3 SWAP1 POP JUMP JUMPDEST PUSH32 0x4E487B7100000000000000000000000000000000000000000000000000000000 PUSH0 MSTORE PUSH1 0x22 PUSH1 0x4 MSTORE PUSH1 0x24 PUSH0 REVERT JUMPDEST PUSH0 PUSH1 0x2 DUP3 DIV SWAP1 POP PUSH1 0x1 DUP3 AND DUP1 PUSH2 0x956 JUMPI PUSH1 0x7F DUP3 AND SWAP2 POP JUMPDEST PUSH1 0x20 DUP3 LT DUP2 SUB PUSH2 0x969 JUMPI PUSH2 0x968 PUSH2 0x912 JUMP JUMPDEST JUMPDEST POP SWAP2 SWAP1 POP JUMP JUMPDEST PUSH0 DUP2 SWAP1 POP DUP2 PUSH0 MSTORE PUSH1 0x20 PUSH0 KECCAK256 SWAP1 POP SWAP2 SWAP1 POP JUMP JUMPDEST PUSH0 PUSH1 0x20 PUSH1 0x1F DUP4 ADD DIV SWAP1 POP SWAP2 SWAP1 POP JUMP JUMPDEST PUSH0 DUP3 DUP3 SHL SWAP1 POP SWAP3 SWAP2 POP POP JUMP JUMPDEST PUSH0 PUSH1 0x8 DUP4 MUL PUSH2 0x9CB PUSH32 0xFFFFFFFFFFFFFFFFFFFFFFFFFFFFFFFFFFFFFFFFFFFFFFFFFFFFFFFFFFFFFFFF DUP3 PUSH2 0x990 JUMP JUMPDEST PUSH2 0x9D5 DUP7 DUP4 PUSH2 0x990 JUMP JUMPDEST SWAP6 POP DUP1 NOT DUP5 AND SWAP4 POP DUP1 DUP7 AND DUP5 OR SWAP3 POP POP POP SWAP4 SWAP3 POP POP POP JUMP JUMPDEST PUSH0 DUP2 SWAP1 POP SWAP2 SWAP1 POP JUMP JUMPDEST PUSH0 PUSH2 0xA10 PUSH2 0xA0B PUSH2 0xA06 DUP5 PUSH2 0x508 JUMP JUMPDEST PUSH2 0x9ED JUMP JUMPDEST PUSH2 0x508 JUMP JUMPDEST SWAP1 POP SWAP2 SWAP1 POP JUMP JUMPDEST PUSH0 DUP2 SWAP1 POP SWAP2 SWAP1 POP JUMP JUMPDEST PUSH2 0xA29 DUP4 PUSH2 0x9F6 JUMP JUMPDEST PUSH2 0xA3D PUSH2 0xA35 DUP3 PUSH2 0xA17 JUMP JUMPDEST DUP5 DUP5 SLOAD PUSH2 0x99C JUMP JUMPDEST DUP3 SSTORE POP POP POP POP JUMP JUMPDEST PUSH0 SWAP1 JUMP JUMPDEST PUSH2 0xA51 PUSH2 0xA45 JUMP JUMPDEST PUSH2 0xA5C DUP2 DUP5 DUP5 PUSH2 0xA20 JUMP JUMPDEST POP POP POP JUMP JUMPDEST JUMPDEST DUP2 DUP2 LT ISZERO PUSH2 0xA7F JUMPI PUSH2 0xA74 PUSH0 DUP3 PUSH2 0xA49 JUMP JUMPDEST PUSH1 0x1 DUP2 ADD SWAP1 POP PUSH2 0xA62 JUMP JUMPDEST POP POP JUMP JUMPDEST PUSH1 0x1F DUP3 GT ISZERO PUSH2 0xAC4 JUMPI PUSH2 0xA95 DUP2 PUSH2 0x96F JUMP JUMPDEST PUSH2 0xA9E DUP5 PUSH2 0x981 JUMP JUMPDEST DUP2 ADD PUSH1 0x20 DUP6 LT ISZERO PUSH2 0xAAD JUMPI DUP2 SWAP1 POP JUMPDEST PUSH2 0xAC1 PUSH2 0xAB9 DUP6 PUSH2 0x981 JUMP JUMPDEST DUP4 ADD DUP3 PUSH2 0xA61 JUMP JUMPDEST POP POP JUMPDEST POP POP POP JUMP JUMPDEST PUSH0 DUP3 DUP3 SHR SWAP1 POP SWAP3 SWAP2 POP POP JUMP JUMPDEST PUSH0 PUSH2 0xAE4 PUSH0 NOT DUP5 PUSH1 0x8 MUL PUSH2 0xAC9 JUMP JUMPDEST NOT DUP1 DUP4 AND SWAP2 POP POP SWAP3 SWAP2 POP POP JUMP JUMPDEST PUSH0 PUSH2 0xAFC DUP4 DUP4 PUSH2 0xAD5 JUMP JUMPDEST SWAP2 POP DUP3 PUSH1 0x2 MUL DUP3 OR SWAP1 POP SWAP3 SWAP2 POP POP JUMP JUMPDEST PUSH2 0xB15 DUP3 PUSH2 0x575 JUMP JUMPDEST PUSH8 0xFFFFFFFFFFFFFFFF DUP2 GT ISZERO PUSH2 0xB2E JUMPI PUSH2 0xB2D PUSH2 0x70C JUMP JUMPDEST JUMPDEST PUSH2 0xB38 DUP3 SLOAD PUSH2 0x93F JUMP JUMPDEST PUSH2 0xB43 DUP3 DUP3 DUP6 PUSH2 0xA83 JUMP JUMPDEST PUSH0 PUSH1 0x20 SWAP1 POP PUSH1 0x1F DUP4 GT PUSH1 0x1 DUP2 EQ PUSH2 0xB74 JUMPI PUSH0 DUP5 ISZERO PUSH2 0xB62 JUMPI DUP3 DUP8 ADD MLOAD SWAP1 POP JUMPDEST PUSH2 0xB6C DUP6 DUP3 PUSH2 0xAF1 JUMP JUMPDEST DUP7 SSTORE POP PUSH2 0xBD3 JUMP JUMPDEST PUSH1 0x1F NOT DUP5 AND PUSH2 0xB82 DUP7 PUSH2 0x96F JUMP JUMPDEST PUSH0 JUMPDEST DUP3 DUP2 LT ISZERO PUSH2 0xBA9 JUMPI DUP5 DUP10 ADD MLOAD DUP3 SSTORE PUSH1 0x1 DUP3 ADD SWAP2 POP PUSH1 0x20 DUP6 ADD SWAP5 POP PUSH1 0x20 DUP2 ADD SWAP1 POP PUSH2 0xB84 JUMP JUMPDEST DUP7 DUP4 LT ISZERO PUSH2 0xBC6 JUMPI DUP5 DUP10 ADD MLOAD PUSH2 0xBC2 PUSH1 0x1F DUP10 AND DUP3 PUSH2 0xAD5 JUMP JUMPDEST DUP4 SSTORE POP JUMPDEST PUSH1 0x1 PUSH1 0x2 DUP9 MUL ADD DUP9 SSTORE POP POP POP JUMPDEST POP POP POP POP POP POP JUMP INVALID LOG2 PUSH5 0x6970667358 0x22 SLT KECCAK256 PUSH2 0xCE7A 0xC8 SWAP14 DUP1 SWAP5 0x5C PUSH18 0xD248BCAE8074400E3F9B741CBF29FFF066BD 0xF6 SWAP14 0x26 0x26 0x4A PUSH5 0x736F6C6343 STOP ADDMOD EQ STOP CALLER "
				},
				"gasEstimates": {
					"creation": {
						"codeDepositCost": "617800",
						"executionCost": "24914",
						"totalCost": "642714"
					},
					"external": {
						"achievements(uint256)": "infinite",
						"claimAchievement(uint256,address)": "2855",
						"createAchievement(string,string,string)": "infinite",
						"setManager(address)": "26903",
						"usersAchievements(uint256)": "2827"
					}
				},
				"methodIdentifiers": {
					"achievements(uint256)": "27aed72e",
					"claimAchievement(uint256,address)": "ee1babb5",
					"createAchievement(string,string,string)": "de718397",
					"setManager(address)": "d0ebdbe7",
					"usersAchievements(uint256)": "c9940208"
				}
			},
			"storageLayout": {
				"storage": [
					{
						"astId": 3,
						"contract": "contracts/Achievements.sol:Achievements",
						"label": "owner",
						"offset": 0,
						"slot": "0",
						"type": "t_address"
					},
					{
						"astId": 5,
						"contract": "contracts/Achievements.sol:Achievements",
						"label": "manager",
						"offset": 0,
						"slot": "1",
						"type": "t_address"
					},
					{
						"astId": 9,
						"contract": "contracts/Achievements.sol:Achievements",
						"label": "achievements",
						"offset": 0,
						"slot": "2",
						"type": "t_array(t_struct(Achievement)99_storage)dyn_storage"
					},
					{
						"astId": 13,
						"contract": "contracts/Achievements.sol:Achievements",
						"label": "usersAchievements",
						"offset": 0,
						"slot": "3",
						"type": "t_mapping(t_uint256,t_address)"
					}
				],
				"types": {
					"t_address": {
						"encoding": "inplace",
						"label": "address",
						"numberOfBytes": "20"
					},
					"t_array(t_struct(Achievement)99_storage)dyn_storage": {
						"base": "t_struct(Achievement)99_storage",
						"encoding": "dynamic_array",
						"label": "struct Achievements.Achievement[]",
						"numberOfBytes": "32"
					},
					"t_mapping(t_uint256,t_address)": {
						"encoding": "mapping",
						"key": "t_uint256",
						"label": "mapping(uint256 => address)",
						"numberOfBytes": "32",
						"value": "t_address"
					},
					"t_string_storage": {
						"encoding": "bytes",
						"label": "string",
						"numberOfBytes": "32"
					},
					"t_struct(Achievement)99_storage": {
						"encoding": "inplace",
						"label": "struct Achievements.Achievement",
						"members": [
							{
								"astId": 92,
								"contract": "contracts/Achievements.sol:Achievements",
								"label": "id",
								"offset": 0,
								"slot": "0",
								"type": "t_uint256"
							},
							{
								"astId": 94,
								"contract": "contracts/Achievements.sol:Achievements",
								"label": "name",
								"offset": 0,
								"slot": "1",
								"type": "t_string_storage"
							},
							{
								"astId": 96,
								"contract": "contracts/Achievements.sol:Achievements",
								"label": "description",
								"offset": 0,
								"slot": "2",
								"type": "t_string_storage"
							},
							{
								"astId": 98,
								"contract": "contracts/Achievements.sol:Achievements",
								"label": "reward",
								"offset": 0,
								"slot": "3",
								"type": "t_string_storage"
							}
						],
						"numberOfBytes": "128"
					},
					"t_uint256": {
						"encoding": "inplace",
						"label": "uint256",
						"numberOfBytes": "32"
					}
				}
			},
			"userdoc": {
				"kind": "user",
				"methods": {},
				"version": 1
			}
		}
	}
}